:04000000D0EF3EF00F
:107D490008036E03C08CFF12008D82030EE82EFE1D
:107D5900D700F08D9212008D90010EA5EC3EF0A98E
:107D6900EC3EF0020E31EC3FF01200046E8D9004EF
:107D790050A5EC3EF0A9EC3EF0040E31EC3FF012B8
:107D890000046E8D800450A5EC3EF0A9EC3EF00491
:107D99000E31EC3FF01200490EF66E7D0EF76E00C3
:107DA9000EF86E0900F5CF0EF0000EF86E00015CBA
:107DB900EF3FF0026E080E036E000E046ED89002BB
:107DC900340434046ED89002360150045CD8A00201
:107DD900D00150045E032EF2D704501200066E0043
:107DE9000E086E0550D8B415D0010E076E03D0D811
:107DF900900536072A05AEFBD7D8900836055006F8
:107E09005CD8A003D00550065E0880D890053207DB
:107E19002EF3D7085012008D903F0E8C6EA9EC3EC0
:107E2900F0010E31EC3FF03F0E8C6EA9EC3EF003F1
:107E39000E31EC3FF03F0E8C6EA9EC3EF0040E3192
:107E4900EC3FF0B0EC3EF00F0EA5EC3EF0A9EC3E95
:107E5900F0040E31EC3FF01200026E1BD0050E014A
:107E69006EDE0EE82EFED7012EFCD71200530EE867
:107E79002EFED700F0350EE82EFED700F0120008CE
:107E89000EE82EFED700F01200030EE82EFED700F2
:107E9900F012000250010AD8B4E1D7030AD8B4E6B7
:107EA900D7010AD8B4ECD7070AD8A41200EDD70F26
:107EB9000EC16E000E956E000E966E10EC3FF0B07E
:107EC900EC3EF0480EC5EC3EF06F0EC5EC3EF06C92
:107ED9000EC5EC3EF0610EC5EC3EF0200EC5EC3E41
:107EE900F06D0EC5EC3EF0750EC5EC3EF06E0EC59C
:107EF900EC3EF0640EC5EC3EF06F0EC5EC3EF0C0F2
:107F09000EBAEC3EF0010E096E070E8DEC3FF0FF44
:107F1900D70D6E8D8065D00A0E016E0D50DEEC3ED8
:107F2900F00C6E0C50300FA5EC3EF0A9EC3EF004BD
:107F39000E31EC3FF012000A0E056E640E016E0D53
:107F490050DEEC3EF0F3EC3EF00B6E0A0E016E0DC6
:107F590050DEEC3EF00C6E0B50300FA5EC3EF0A954
:107F6900EC3EF0040E31EC3FF00C50300FA5EC3E26
:107F7900F0A9EC3EF0040E31EC3FF01200640E055E
:107F89006E0D50F3EC3EF00A6E0A0E056E640E019A
:107F99006E0D50DEEC3EF0F3EC3EF00B6E0A0E0176
:107FA9006E0D50DEEC3EF00C6E0A50300FA5EC3E23
:107FB900F0A9EC3EF0040E31EC3FF00B50300FA568
:107FC900EC3EF0A9EC3EF0040E31EC3FF00C5030E1
:107FD9000FA5EC3EF0A9EC3EF0040E31EC3FF01297
:107FE900000950010AD8B497D7030AD8B4A4D70115
:077FF9000AD8A41200C3D74F
:020000040020DA
:08000000FFFFFFFFFFFFFFFF00
:020000040030CA
:0E00000000091F1EFF8385FF0FC00FE00F4099
:00000001FF
