:0400000007EF00F016
:0A00080043826DED09F07BEF0BF071
:100800000020202020202020202020202020202008
:100810002000456E20526573706F736F00456E65E2
:100820007267696100496E642E00496E662E004D44
:05083000434C520000E2
:100836000F0EC16E000E956EF00E936E000E966E44
:10084600F00E946EF19EDEEC08F0820ED56EF294F8
:10085600C20ED76EF70ED66EF28AF28ED58EC40E03
:10086600D36ECCEC0BF0010ED0A6000ED0A8000E75
:10087600E8A008D0CCEC0BF0D0981D0E136EC6EC99
:100886000AF014D0D0A602D0010E01D0000E1B6EC5
:10089600D0B402D0010E01D0000E1B10E8A006D085
:1008A600CCEC0BF02F0E136EC6EC0AF0030E1C6E8A
:1008B6008A0E1B6E560EE82EFED71B2EFCD71C2E5C
:1008C600FAD7CCEC0BF0000E8A6E000E2E6E000EE0
:1008D6002D6E51EC08F03A6EACEC09F0430E3A1866
:1008E600D8A42DD0C00EB6EC0BF0200E416E200E13
:1008F600406E200E3F6E000E386E000E376E000EF4
:10090600366E000E356E000E346E000E336E000E1F
:10091600296E000E2A6E000E2B6E000E2C6E000E37
:10092600396E800EB6EC0BF0010E136EC6EC0AF0B3
:10093600C00EB6EC0BF0800EB6EC0BF0C4D7200E52
:100946004018D8B408D0200E3F18D8B404D0200ED2
:100956004118D8A4ADD0200E4118D8A42BD02B0E08
:100966003A18D8B410D02D0E3A18D8B40CD02F0E91
:100976003A18D8B408D0780E3A18D8B404D03D0E38
:100986003A18D8B417D0200E4018D8B413D0200E79
:100996003F18D8A40FD0810EB6EC0BF03A50ABEC52
:1009A6000BF03AC041F0210E3A18D8A46ED3410E8E
:1009B6003F6E6BD3200E4018D8A437D02B0E3A18B2
:1009C600D8A420D02D0E3A18D8A41CD02F0E3A1831
:1009D600D8A418D0780E3A18D8A414D03D0E3A18D8
:1009E600D8A410D0430E3A18D8A40CD0210E3A1829
:1009F600D8A408D05E0E3A18D8A404D03D0E3A18F2
:100A0600D8B413D0200E4118D8A40FD0800EB6EC5F
:100A16000BF03A50ABEC0BF03AC040F0D00E3A2453
:100A2600376E386AFF0E382230D3200E3F18D8A40E
:100A36002CD3200E4118D8B428D3210E4118D8B48F
:100A460024D3200E4018D8B420D32B0E3A18D8A49D
:100A560020D02D0E3A18D8A41CD02F0E3A18D8A4A0
:100A660018D0780E3A18D8A414D03D0E3A18D8A447
:100A760010D0430E3A18D8A40CD0210E3A18D8A498
:100A860008D05E0E3A18D8A404D03D0E3A18D8B451
:100A9600FCD2820EB6EC0BF03A50ABEC0BF03AC03F
:100AA6003FF0D00E3A24356E366AFF0E3622EDD26E
:100AB6003D0E3A18D8A4E6D2200E4018D8B4E2D299
:100AC600200E4118D8B4DED2200E3F18D8B4DAD2A0
:100AD600210E4118D8A404D0820EB6EC0BF003D038
:100AE600830EB6EC0BF03D0EABEC0BF0EFD03550B1
:100AF60037241B6E365038201C6E1BC025F01CC0D8
:100B060026F0276A286A25C00EF026C00FF027C0F7
:100B160010F028C011F0640E126E000E136E000E57
:100B2600146E000E156E1CEC0AF00EC029F00FC0F4
:100B36002AF010C02BF011C02CF0DCD03550375CF9
:100B46001B6E36503858D8D737C00EF038C00FF065
:100B560035C010F036C011F098EC0BF00EC025F041
:100B66000FC026F0CED735503610D8B42FD0375018
:100B76003810D8B4BFD037C014F038C015F035C01F
:100B860016F036C017F09DEC0AF014C025F015C01B
:100B960026F0276A286A37C00EF038C00FF0000E1C
:100BA600116E640E106E98EC0BF00EC014F00FC0B0
:100BB60015F035C016F036C017F09DEC0AF014C0DB
:100BC60029F015C02AF02B6A2C6A94D037503810B9
:100BD600D8B406D035503610D8A402D0E80E09D0C5
:100BE60037503810D8A48FD735503610D8A48BD7A5
:100BF600E90E256E030E266E000E276E000E286E79
:100C060082D737C025F038C026F0276A286A21D057
:100C1600FF0E37241B6EFF0E38201C6E1BC00EF015
:100C26001CC00FF0106A116A25C012F026C013F01E
:100C360027C014F028C015F01CEC0AF00EC025F0F1
:100C46000FC026F010C027F011C028F03706D8A034
:100C560038063850DDE1020E375CD8A054D7D8D715
:100C660037C025F038C026F0276A286AFF0E3524DB
:100C7600356EFF0E3620366E1BD037C00EF038C0EC
:100C86000FF0106A116A25C012F026C013F027C0B3
:100C960014F028C015F01CEC0AF00EC025F00FC0A9
:100CA60026F010C027F011C028F03506D8A0360669
:100CB60035503610D8B427D7E0D7000E256E000E73
:100CC600266E000E276E000E286E14D04150210AA3
:100CD600D8B497D70A0AD8B40AD7060AD8B42ED7F2
:100CE600020AD8B440D7710AD8B4BAD7260AD8B4FB
:100CF6002BD7E3D7210E4118D8A404D0830EB6EC27
:100D06000BF003D0840EB6EC0BF025C00EF026C017
:100D16000FF027C010F028C011F09C0E126EFF0EC7
:100D2600136EFF0E146EFF0E156E1CEC0AF02950A2
:100D36000E241B6E2A500F201C6E2B5010201D6E89
:100D46002C5011201E6E1B501C101D101E10D8B4E6
:100D56007AD025C00EF026C00FF027C010F028C0AC
:100D660011F09C0E126EFF0E136EFF0E146EFF0E28
:100D7600156E1CEC0AF029500E241B6E2A500F200B
:100D86001C6E2B5010201D6E2C5011201E6E1B50F9
:100D96001C101D101E10D8B456D0000E226E000E68
:100DA600216E22BE08D0225005E1030E215CD8B088
:100DB6006CD101D06AD137C014F038C015F035C0F7
:100DC60016F036C017F09DEC0AF014C025F015C0D9
:100DD60026F0276A286A37C00EF038C00FF035C0F3
:100DE60010F036C011F05AEC0BF00EC03BF00FC0FD
:100DF6003CF03D6A3E6A2550300FABEC0BF02150BB
:100E06002210D8A409D03B503C103D103E10D8B457
:100E160003D02C0EABEC0BF03B503C103D103E10BB
:100E2600D8B433D13BC00EF03CC00FF0000E116EAB
:100E36000A0E106E98EC0BF00EC037F00FC038F0AB
:100E4600214A222AAED728502710261004E1520E36
:100E5600255CD8A029D0E80E251806E1030E261831
:100E660027102810D8B420D0E90E251806E1030E65
:100E7600261827102810D8B417D02D0E4118D8A43C
:100E860013D02D0EABEC0BF0850EB6EC0BF0281E36
:100E9600271E261E256C000E2622272228222550D4
:100EA600300FABEC0BF0F1D0E80E25180BE1030E7A
:100EB600261827102810D8A405D02A0E136EC6ECC3
:100EC6000AF0E3D0E90E25180BE1030E26182710C9
:100ED6002810D8A405D0250E136EC6EC0AF0D5D07E
:100EE60028502710261004E10A0E255CD8A0C5D08C
:100EF600E80E251806E1030E261827102810D8B488
:100F0600BCD0E90E251806E1030E26182710281076
:100F1600D8B4B3D0000E246E090E236E24BEB5D00D
:100F26000A0E296E000E2A6E000E2B6E000E2C6E17
:100F3600FF0E23241F6EFF0E2420206E20BE23D01A
:100F4600205003E11F04D8A01ED029C00EF02AC0ED
:100F56000FF02BC010F02CC011F00A0E126E000E0E
:100F6600136E000E146E000E156E1CEC0AF00EC009
:100F760029F00FC02AF010C02BF011C02CF01F066C
:100F8600D8A02006DBD725C00EF026C00FF027C05C
:100F960010F028C011F029C012F02AC013F02BC09F
:100FA60014F02CC015F02CEC09F00E500F10101098
:100FB6001110D8B433D0010E396E25C00EF026C0FC
:100FC6000FF027C010F028C011F029C012F02AC077
:100FD60013F02BC014F02CC015F02CEC09F00E50B9
:100FE600300FABEC0BF025C00EF026C00FF027C07B
:100FF60010F028C011F029C012F02AC013F02BC03F
:1010060014F02CC015F0E9EC09F00EC025F00FC065
:1010160026F010C027F011C028F02BD025C00EF006
:1010260026C00FF027C010F028C011F029C012F01A
:101036002AC013F02BC014F02CC015F02CEC09F0CC
:101046000E500F1010101110D8A413D03950D8B468
:1010560010D028502710261009E10A0E255CD8B0BA
:1010660005D02550300FABEC0BF003D0300EABECB7
:101076000BF02306D8A0240651D72550300FABEC31
:101086000BF003D0200EABEC0BF0E40E1B6E440EFF
:10109600E82EFED71B2EFCD700D015D481B881AA26
:1010A60004D081AC02D081BEF9D7000E2E6E010E9F
:1010B6002D6EFE0E8A6E81B802D0310E120081BAF4
:1010C60002D0320E120081BC02D0330E120082BC56
:1010D60002D0010E01D0000E0E6E81BE02D0010EAE
:1010E60001D0000E0E14E8A002D02B0E120082AC26
:1010F60002D0010E01D0000E0E6E81BE02D0010E8E
:1011060001D0000E0E14E8A002D0210E1200FD0E32
:101116008A6E81B802D0340E120081BA02D0350E22
:10112600120081BC02D0360E120082BC02D0010E23
:1011360001D0000E0E6E81BE02D0010E01D0000E4F
:101146000E14E8A002D02D0E120082AC02D0010EC1
:1011560001D0000E0E6E81BE02D0010E01D0000E2F
:101166000E14E8A002D05E0E1200FB0E8A6E81B845
:1011760002D0370E120081BA02D0380E120081BC9E
:1011860002D0390E120081BE02D02F0E1200F70EC9
:101196008A6E81B802D0430E120081BA02D0300E98
:1011A600120081BC02D03D0E120081BE02D0780E24
:1011B60012003F0E12008D90040E4218D8A404D0DF
:1011C6008C500F0B300901D03F0E8C6EE0EC0BF00B
:1011D600010E47EC0AF0040E4218D8A404D08C5035
:1011E6000F0B300901D03F0E8C6EE0EC0BF0030EB6
:1011F60047EC0AF0040E4218D8A404D08C500F0B0A
:10120600300901D03F0E8C6EE0EC0BF0040E47EC7B
:101216000AF0040E4218D8A411D08C500F0B2009E6
:101226008C6EE0EC0BF0040E47EC0AF02F0E14EC7B
:101236000BF0E0EC0BF0040E47EC0AF0CCEC0BF0F4
:101246000F0E14EC0BF0E0EC0BF0040E47EC0AF07A
:101256001200000E166E000E176E000E186E000EAF
:10126600196E1250131014101510D8B42AD0010E8E
:101276001A6E06D0D89012361336143615361A2A38
:1012860015AEF8D7D89016361736183619361250C6
:101296000E5C13500F581450105815501158D8A002
:1012A60009D012500E5E13500F5A1450105A155092
:1012B600115A1680D89015321432133212321A2E61
:1012C600E1D716C00EF017C00FF018C010F019C005
:1012D60011F012000600F6CF0AF0F7CF0BF0F8CFA8
:1012E6000CF0F5CF0DF0F2A419D02D502E10D8A485
:1012F60007D0010E2F242F6E000E3020306E04D042
:10130600000E306E000E2F6EF2948DB402D08D84D6
:1013160001D08D94C20ED76EF70ED66E140E2F180E
:101326003010D8A40CD02D502E10D8A408D0D6EC4E
:101336000BF0120E066EEDEC0AF00300FFD70DC09F
:10134600F5FF0CC0F8FF0BC0F7FF0AC0F6FF43928B
:101356001100080E31183210D8A414D0000E326EC7
:10136600000E316E0FD0000E0BD0050E09D0060E02
:1013760007D0030E05D0020E03D0040E01D0070ECF
:101386008B6E21D031C00EF032C00FF00F50000A24
:10139600D8A419D00E50000AD8B4E5D7010AD8B49B
:1013A600E4D7030AD8B4E3D7010AD8B4E2D7070AC8
:1013B600D8B4E1D7010AD8B4DAD7030AD8B4DDD74E
:1013C600010AD8B4DCD7314A322A1200125013105F
:1013D60014101510D8B424D0010E166E06D0D8906D
:1013E6001236133614361536162A15AEF8D712509D
:1013F6000E5C13500F581450105815501158D8A0A1
:1014060008D012500E5E13500F5A1450105A155031
:10141600115AD8901532143213321232162EE7D7DB
:101426000EC00EF00FC00FF010C010F011C011F07A
:101436001200000E166E000E176E000E186E000ECD
:10144600196E0EA008D012501626135017221450EB
:10145600182215501922D89012361336143615361E
:10146600D890113210320F320E320E500F1010106B
:101476001110D8A4E6D716C00EF017C00FF018C08A
:1014860010F019C011F012000F6E1BD0050E0E6E73
:10149600DE0EE82EFED70E2EFCD71200530EE82ED7
:1014A600FED700F0350EE82EFED700F01200080E2B
:1014B600E82EFED700F01200030EE82EFED700F04D
:1014C60012000F50010AD8B4E1D7030AD8B4E6D700
:1014D600010AD8B4ECD7070AD8A41200EDD7026ED9
:1014E6001BD0050E016EDE0EE82EFED7012EFCD7B0
:1014F6001200530EE82EFED700F0350EE82EFED76A
:1015060000F01200080EE82EFED700F01200030EBF
:10151600E82EFED700F012000250010AD8B4E1D737
:10152600030AD8B4E6D7010AD8B4ECD7070AD8A478
:101536001200EDD7000E196E000E186E1650171019
:10154600D8B41CD0010E1A6E04D0D89016361736B1
:101556001A2A17AEFAD7D890183619361650145CD0
:1015660017501558D8A005D01650145E1750155AA6
:101576001880D890173216321A2EEDD718C014F0EC
:1015860019C015F01200000E166E000E156E1350DF
:101596001524146E14C0F6FF080EF76E0800F550F9
:1015A6000009D8B4120013501524146E14C0F6FFA7
:1015B600080EF76E0800F550ABEC0BF0154A162A2C
:1015C60016BEE5D7165005E1100E155CD8B0120010
:1015D600DED71200000E096E000E086E06500824B3
:1015E600076E07C0F6FF080EF76E0800F5500009F3
:1015F600D8B4120006500824076E07C0F6FF080E7E
:10160600F76E0800F550C1EC0BF0084A092A09BE2E
:10161600E5D7095005E1100E085CD8B01200DED7F8
:101626001200116E040E4218D8A417D011C010F083
:10163600F00E10168C500F0B10108C6EE0EC0BF0A9
:10164600010E47EC0AF011C010F0103AF00E101619
:101656008C500F0B10108C6E1200080E4218D8A476
:10166600120011C08CFF1200046E040E4218D8A49A
:1016760017D004C003F0F00E03168C500F0B0310A6
:101686008C6EE7EC0BF0010E72EC0AF004C003F06E
:10169600033AF00E03168C500F0B03108C6E1200DB
:1016A600080E4218D8A4120004C08CFF1200105075
:1016B6001110D8B418D0010E126E04D0D89010367E
:1016C6001136122A11AEFAD710500E5C11500F586F
:1016D600D8A004D010500E5E11500F5AD890113277
:1016E6001032122EF1D70EC00EF00FC00FF01200FE
:1016F600DC0EF66E170EF76E000EF86E00EE3FF07B
:1017060010EE04F00900F5CFEEFFE550E150FAE1E6
:1017160000EE25F01A0EEE6AE806FDE143904392CC
:10172600000EF86E00011BEF04F00E501002F3CF0E
:1017360012F0F4CF13F00E501102F35013260F508F
:101746001002F350132612C00EF013C00FF0120051
:10175600126E8D80125014EC0BF0E0EC0BF0040EC0
:1017660047EC0AF01200126E8D90125014EC0BF03A
:10177600E0EC0BF0040E47EC0AF01200056E8D80CB
:10178600055037EC0BF0E7EC0BF0040E72EC0AF0A8
:1017960012008D90010E14EC0BF0E0EC0BF0020E33
:1017A60047EC0AF012008D90010E37EC0BF0E7ECD7
:1017B6000BF0020E72EC0AF012008D82030EE82E78
:1017C600FED700F08D9212008D82030EE82EFED712
:0A17D60000F08D9212002020200880
:020000040020DA
:08000000FFFFFFFFFFFFFFFF00
:020000040030CA
:0E00000000091F1EFF8181FF0FC00FE00F409F
:00000001FF
