:04000000D4EF06F043
:100800000020202020202020202020202020202008
:100810002000486F6C61206D756E646F00000F0ED4
:10082000C16E000E956EF00E936E000E966EF19EE8
:10083000B3EC06F018EC07F0120E106E8CEC06F01C
:10084000030E156E8A0E146E560EE82EFED7142E69
:10085000FCD7152EFAD718EC07F0000E8A6EE7ECDD
:1008600005F00B6E430E0B18D8A423D0C00E0DEC70
:1008700007F0200E186E200E176E200E166E000E5A
:100880000A6E000E096E000E086E000E076E000E56
:10089000066E000E056E800E0DEC07F0010E106E58
:1008A0008CEC06F0C00E0DEC07F0800E0DEC07F09E
:1008B000D4D7200E1718D8B408D0200E1618D8B4E4
:1008C00004D0200E1818D8A479D1200E1818D8A456
:1008D00019D02B0E0B18D8B40CD02D0E0B18D8B481
:1008E00008D02F0E0B18D8B404D0780E0B18D8A44B
:1008F00009D0810E0DEC07F00B5002EC07F00BC095
:1009000018F05CD13D0E0B18D8A436D0200E171865
:10091000D8B454D1200E1618D8B450D1200E1818BF
:10092000D8A44CD1200E1718D8A40FD0800E0DECEF
:1009300007F00B5002EC07F00BC017F0D00E0B24A1
:10094000096E0A6AFF0E0A2239D1200E1618D8A4A1
:1009500035D1200E1818D8B431D1820E0DEC07F025
:100960000B5002EC07F00BC016F0D00E0B24076EF4
:10097000086AFF0E082222D13D0E0B18D8A412D10E
:10098000200E1718D8B479D0200E1618D8B475D008
:10099000200E1818D8B471D0830E0DEC07F03D0E60
:1009A00002EC07F058D007500924146E08500A20B2
:1009B00005D00750095C146E08500A58156E14C013
:1009C00001F015C002F025D009C00CF00AC00DF0EE
:1009D00007C00EF008C00FF0EFEC06F00CC001F0FD
:1009E0000DC002F016D007500810D8B415D0095029
:1009F0000A10D8B43ED009C00CF00AC00DF007C0F0
:100A00000EF008C00FF063EC06F00CC001F00DC052
:100A100002F0036A046A2DD009500A10D8B406D037
:100A200007500810D8A402D0E80E09D009500A10C7
:100A3000D8A41FD007500810D8A41BD0E90E016E0F
:100A4000030E03D0000E016E000E026E000E036E48
:100A5000000E046E0ED018502B0AD8B4A4D7060A84
:100A6000D8B4A7D7020AD8B4BED7570AD8B4ACD7DF
:100A7000E9D70150300F02EC07F0840E0DEC07F0BF
:100A800004500310021004E1520E015CD8A025D0DE
:100A9000E80E011806E1030E021803100410D8B482
:100AA0001CD0E90E011806E1030E02180310041011
:100AB000D8B413D02D0E02EC07F0850E0DEC07F024
:100AC000041E031E021E016C000E022203220422D9
:100AD0000150300F02EC07F071D0045003100210E7
:100AE00004E10B0E015CD8A038D0E80E011806E135
:100AF000030E021803100410D8B42FD0E90E011809
:100B000006E1030E021803100410D8B426D0010E1B
:100B10000524056E000E0620066EF60E0124016EF9
:100B2000FF0E0220026EFF0E0320036EFF0E042054
:100B3000046E045003100210EAE10B0E015CD8B001
:100B4000E6D70550300F02EC07F0850E0DEC07F0EC
:100B50000150300F02EC07F031D0E80E011810E11F
:100B6000030E021803100410D8A40AD0490E02EC98
:100B700007F04E0E02EC07F0460E02EC07F01ED016
:100B8000E90E016E030E026E000E036E000E046E7F
:100B9000490E02EC07F04E0E02EC07F0440E02EC98
:100BA00007F00CD0200E1718D8A404D00B5002EC7C
:100BB00007F0C2D60B5002EC07F0D5D6E40E146E47
:100BC000440EE82EFED7142EFCD700D046D681B8AE
:100BD00081AA04D081AC02D081BEF9D7FE0E8A6E04
:100BE00081B802D0310E120081BA02D0320E12004A
:100BF00081BC02D0330E120081BE02D02B0E120037
:100C0000FD0E8A6E81B802D0340E120081BA02D075
:100C1000350E120081BC02D0360E120081BE02D009
:100C20002D0E1200FB0E8A6E81B802D0370E120014
:100C300081BA02D0380E120081BC02D0390E1200E7
:100C400081BE02D02F0E1200F70E8A6E81B802D03C
:100C5000430E120081BA02D0300E120081BC02D0C5
:100C60003D0E120081BE02D0780E12003F0E12001F
:100C70000D6E1BD0050E0C6EDE0EE82EFED70C2E70
:100C8000FCD71200530EE82EFED700F0350EE82EEA
:100C9000FED700F01200080EE82EFED700F012007A
:100CA000030EE82EFED700F012000D50010AD8B452
:100CB000E1D7030AD8B4E6D7010AD8B4ECD7070ABB
:100CC000D8A41200EDD7000E116E000E106E0E505B
:100CD0000F10D8B41CD0010E126E04D0D8900E366E
:100CE0000F36122A0FAEFAD7D890103611360E50A2
:100CF0000C5C0F500D58D8A005D00E500C5E0F5054
:100D00000D5A1080D8900F320E32122EEDD710C02F
:100D10000CF011C00DF01200000E136E000E126EDA
:100D200010501224116E11C0F6FF080EF76E080065
:100D3000F5500009D8B40BD010501224116E11C018
:100D4000F6FF080EF76E0800F55002EC07F0124AA5
:100D5000132A13BEE5D7135005E1100E125CD8B06C
:100D60001200DED712008D903F0E8C6E22EC07F041
:100D7000010E38EC06F03F0E8C6E22EC07F0030EED
:100D800038EC06F03F0E8C6E22EC07F0040E38ECC7
:100D900006F018EC07F00F0E29EC07F022EC07F034
:100DA000040E38EC06F012005A0EF66E0E0EF76EB8
:100DB000000EF86E00EE16F010EE04F00900F5CF0C
:100DC000EEFFE550E150FAE100EE01F00B0EEE6AA5
:100DD000E806FDE1000EF86E00010FEF04F00C5084
:100DE0000E02F3CF10F0F4CF11F00C500F02F350BD
:100DF00011260D500E02F350112610C00CF011C038
:100E00000DF012000F6E8D800F5029EC07F022ECD0
:100E100007F0040E38EC06F012000F6E8D900F50A4
:100E200029EC07F022EC07F0040E38EC06F0120073
:100E30008D90010E29EC07F022EC07F0020E38EC41
:100E400006F012008D82030EE82EFED700F08D9280
:0E0E500012000E6E0EC08CFF12002020200833
:020000040020DA
:08000000FFFFFFFFFFFFFFFF00
:020000040030CA
:0E00000000091F1EFF8385FF0FC00FE00F4099
:00000001FF
