:04000000EFEF04F02A
:0D08000000486F6C61206D756E646F000024
:10080E000F0EC16E000E956EF00E936E000E966E6C
:10081E00000E8A6EF19EB3EC04F00AEC05F0010EA8
:10082E00056ED4EC04F081B881AA04D081AC02D05C
:10083E0081BEF9D7FE0E8A6E81B802D0010E43D06A
:10084E0081BA02D0020E3FD081BC02D0030E3BD043
:10085E0081BE02D0040E37D0FD0E8A6E81B802D052
:10086E00050E31D081BA02D0060E2DD081BC02D039
:10087E00070E29D081BE02D0080E25D0FB0E8A6E3F
:10088E0081B802D0090E1FD081BA02D00A0E1BD039
:10089E0081BC02D00B0E17D081BE02D00C0E13D02D
:1008AE00F70E8A6E81B802D00D0E0DD081BA02D02D
:1008BE000E0E09D081BC02D00F0E05D081BE02D023
:1008CE00100E01D0000E0B6EF00E8A6E000E0A6E28
:1008DE0011D08C80820E096EDE0EE82EFED7092E08
:1008EE00FCD78C90820E096EDE0EE82EFED7092EF6
:1008FE00FCD70A2A0B500A5CD8A0EBD7000E0B6E61
:10090E0092D7026E1BD0050E016EDE0EE82EFED7BC
:10091E00012EFCD71200530EE82EFED700F0350E36
:10092E00E82EFED700F01200080EE82EFED700F0DB
:10093E001200030EE82EFED700F012000250010A3C
:10094E00D8B4E1D7030AD8B4E6D7010AD8B4ECD7A5
:10095E00070AD8A41200EDD78D903F0E8C6E14ECC2
:10096E0005F0010E88EC04F03F0E8C6E14EC05F0D1
:10097E00030E88EC04F03F0E8C6E14EC05F0040EA2
:10098E0088EC04F00AEC05F00F0E1BEC05F014ECED
:10099E0005F0040E88EC04F01200000E086E000E36
:1009AE00076E05500724066E06C0F6FF080EF76E9A
:1009BE000800F550FFEC04F0074A082A08BEF1D7EC
:1009CE00085005E1100E075CD8B01200EAD71200ED
:1009DE003E0EF66E0A0EF76E000EF86E0900F5CF9B
:1009EE000CF00B6A0A6A000EF86E000107EF04F0B5
:1009FE00046E8D8004501BEC05F014EC05F0040E13
:100A0E0088EC04F012008D90010E1BEC05F014EC36
:100A1E0005F0020E88EC04F012008D82030EE82E13
:100A2E00FED700F08D921200036E03C08CFF1200F1
:010A3E0008AF
:020000040020DA
:08000000FFFFFFFFFFFFFFFF00
:020000040030CA
:0E00000000091F1EFF8385FF0FC00FE00F4099
:00000001FF
