:0400000030EF08F0E5
:100800000020202020202020202020202020202008
:100810002000486F6C61206D756E646F00001B6E68
:10082000430E1B18D8A415D0200E2C6E200E2B6E54
:10083000200E2A6E000E266E000E256E000E246E0F
:10084000000E236E000E226E000E216E85EC08F065
:100850001200200E2B18D8B408D0200E2A18D8B4B5
:1008600004D0200E2C18D8A447D0200E2C18D8A4C1
:1008700019D02B0E1B18D8B40CD02D0E1B18D8B4C1
:1008800008D02F0E1B18D8B404D0780E1B18D8A48B
:1008900009D0810E9BEC08F01B5090EC08F01BC0B7
:1008A0002CF01200200E2B18D8A40FD0800E9BEC39
:1008B00008F01B5090EC08F01BC02BF0D00E1B244E
:1008C000256E266AFF0E26221200200E2A18D8A4B2
:1008D0001200200E2C18D8B41200820E9BEC08F0E7
:1008E0001B5090EC08F01BC02AF0D00E1B24236E86
:1008F000246AFF0E242212003D0E1B18D8A41200F9
:10090000200E2B18D8B41200200E2A18D8B41200CA
:10091000200E2C18D8B41200830E9BEC08F03D0E6C
:1009200090EC08F062D023502524276E2450262016
:1009300005D02350255C276E24502658286E63D09E
:1009400025C001F026C002F023C003F024C004F04B
:1009500060EC08F001C027F002C028F054D023500A
:100960002410D8B425D025502610D8B44CD025C09A
:1009700009F026C00AF073EC08F009C00CF00AC0B8
:100980000DF00BC00EF023C009F024C00AF073EC88
:1009900008F009C00FF00AC010F00BC011F07AEC9B
:1009A00005F00CC01EF00DC01FF00EC020F02BD0C3
:1009B00025502610D8B408D023502410D8A404D031
:1009C000030E286EE80E0FD025502610D8A41BD099
:1009D00023502410D8A417D0030E286EE90E03D09C
:1009E000000E286E000E276E0ED02C502B0AD8B4A5
:1009F0009AD7060AD8B49DD7020AD8B4B0D7570AF6
:100A0000D8B49ED7EDD7840E9BEC08F0285004E1B3
:100A1000520E275CD8A01DD0E80E271804E1030E63
:100A20002818D8B416D0E90E271804E1030E2818A8
:100A3000D8B40FD02D0E90EC08F0850E9BEC08F08A
:100A4000276C281ED8B0282A2750300F90EC08F0C9
:100A50001200285004E10B0E275CD8A02CD0E80E21
:100A6000271804E1030E2818D8B425D0E90E27185A
:100A700004E1030E2818D8B41ED0010E2124216EE3
:100A8000000E2220226EF60E2724276EFF0E28204D
:100A9000286E2850F2E10B0E275CD8B0EED721501B
:100AA000300F90EC08F0850E9BEC08F02750300FCB
:100AB00090EC08F01200E80E27180EE1030E28183B
:100AC000D8A40AD0490E90EC08F04E0E90EC08F035
:100AD000460E90EC08F01200030E286EE90E276E09
:100AE000490E90EC08F04E0E90EC08F0440E90EC9D
:100AF00008F012000EC012F0136A146A0D34123698
:100B000001E313801250196E1950D8A407D0000EBB
:100B10000C6E000E0D6E000E0E6E120011C012F063
:100B2000136A146A1034123601E3138012501A6EDD
:100B30001A50D8A407D0000E0C6E000E0D6E000ED9
:100B40000E6E1200000E166E000E176E000E186E5E
:100B50001A50890F195E0EC01AF011501A1A800E21
:100B60001A160D8EFF0E0C16FF0E0D16000E0E1629
:100B7000108EFF0E0F16FF0E1016000E1116180E17
:100B8000156ED8901636173618360F500C5C10506C
:100B90000D5811500E58D8A007D00F500C5E1050B1
:100BA0000D5A11500E5A1680D8900C360D360E364E
:100BB000152EE7D716C001F017C002F018C003F0D9
:100BC00019C004F01AC005F0C9EC06F001C00CF021
:100BD00002C00DF003C00EF01200146E8D8065D0BF
:100BE0000A0E016E14504BEC08F0136E1350300FC8
:100BF000B7EC08F0B0EC08F0040EA0EC07F012001F
:100C00000A0E056E640E016E14504BEC08F013ECE6
:100C100008F0126E0A0E016E14504BEC08F0136EC1
:100C20001250300FB7EC08F0B0EC08F0040EA0EC56
:100C300007F01350300FB7EC08F0B0EC08F0040EDA
:100C4000A0EC07F01200640E056E145013EC08F0CF
:100C5000116E0A0E056E640E016E14504BEC08F016
:100C600013EC08F0126E0A0E016E14504BEC08F0F3
:100C7000136E1150300FB7EC08F0B0EC08F0040E12
:100C8000A0EC07F01250300FB7EC08F0B0EC08F011
:100C9000040EA0EC07F01350300FB7EC08F0B0ECE6
:100CA00008F0040EA0EC07F012001050010AD8B4AE
:100CB00097D7030AD8B4A4D7010AD8A41200C3D77F
:100CC00003C005F0066A076A0234053601E30680B0
:100CD00005500F6E0F50D8A409D0000E016E000E03
:100CE000026E000E036E000E046E1200170E056EEB
:100CF00001C006F002C007F003C008F00528096E25
:100D000004D0D890083207320632092EFAD706509E
:100D10000A6E028EFF0E0116FF0E0216000E03165B
:100D200001500B6E02500C6E03500D6E0E6A8E0E4B
:100D30000F5E0FAE0DD00F50800A8F0FD8A0CDD709
:100D4000D8900E320D320C320B320F3EF9D70DD047
:100D5000170E0F6407D0C1D7D8900B360C360D365E
:100D60000E360F060F50D8A4F7D70A50D8B408D0C3
:100D70000E1E0D1E0C1E0B6C000E0C220D220E22E0
:100D80000BC001F00CC002F00DC003F00EC004F067
:100D900012000450D8B405D0015002100310D8A49A
:100DA0000CD0000E016E000E026E000E036E1200DB
:100DB000042AD890033202320132000E0114066E6A
:100DC000000E0214076EFE0E0314086E0650071084
:100DD0000810D8B40CD0ECD7042A010E0126000E5E
:100DE0000222000E0322D890033202320132000E9A
:100DF0000114066E000E0214076EFF0E0314086E37
:100E0000065007100810D8B406D0E6D70406D890CC
:100E100001360236033602BE03D0020E0460F6D756
:100E200004A0029ED8900432045003120550D8A4A6
:100E3000038E01C001F002C002F003C003F01200F3
:100E400081B881AA04D081AC02D081BEF9D7FE0E50
:100E50008A6E81B802D0310E120081BA02D0320EF1
:100E6000120081BC02D0330E120081BE02D02B0EC4
:100E70001200FD0E8A6E81B802D0340E120081BAC3
:100E800002D0350E120081BC02D0360E120081BE97
:100E900002D02D0E1200FB0E8A6E81B802D0370EE2
:100EA000120081BA02D0380E120081BC02D0390E75
:100EB000120081BE02D02F0E1200F70E8A6E81B88A
:100EC00002D0430E120081BA02D0300E120081BC53
:100ED00002D03D0E120081BE02D0780E12003F0EED
:100EE00012000F0EC16E000E956EF00E936E000E86
:100EF000966EF19EF2EC07F0A6EC08F0120E056E6D
:100F0000CBEC07F0030E1D6E8A0E1C6E560EE82EFB
:100F1000FED71C2EFCD71D2EFAD785EC08F0000E4C
:100F20008A6E20EC07F0296E110E1C6E3A0EE82E28
:100F3000FED71C2EFCD700D029500FEC04F0EFD7C1
:100F4000026E1BD0050E016EDE0EE82EFED7012EBE
:100F5000FCD71200530EE82EFED700F0350EE82E17
:100F6000FED700F01200080EE82EFED700F01200A7
:100F7000030EE82EFED700F012000250010AD8B48A
:100F8000E1D7030AD8B4E6D7010AD8B4ECD7070AE8
:100F9000D8A41200EDD7000E086E000E076E0550A3
:100FA0000724066E06C0F6FF080EF76E0800F5501F
:100FB0000009D8B40BD005500724066E06C0F6FF12
:100FC000080EF76E0800F55090EC08F0074A082A62
:100FD00008BEE5D7085005E1100E075CD8B0120036
:100FE000DED712008D903F0E8C6EB0EC08F0010E33
:100FF000A0EC07F03F0E8C6EB0EC08F0030EA0ECF6
:1010000007F03F0E8C6EB0EC08F0040EA0EC07F079
:10101000A6EC08F00F0EB7EC08F0B0EC08F0040EE8
:10102000A0EC07F01200066E000E086E0550D8B452
:1010300015D0010E076E03D0D8900536072A05AEED
:10104000FBD7D89008360550065CD8A003D00550D1
:10105000065E0880D8900532072EF3D7085012009C
:10106000760EF66E110EF76E000EF86E00EE2AF098
:1010700010EE04F00900F5CFEEFFE550E150FAE183
:1010800000EE1EF00C0EEE6AE806FDE1000EF86EB2
:10109000000171EF07F0026E080E036E000E046E81
:1010A000D89002340434046ED89002360150045CA7
:1010B000D8A002D00150045E032EF2D704501200D3
:1010C00001500302F3CF05F0F4CF06F00150040203
:1010D000F350062602500302F350062605C001F025
:1010E00006C002F0120009C001F00AC002F0036A53
:1010F0008E0E046E000E056EC9EC06F001C009F0FC
:1011000002C00AF003C00BF01200800E9BEC08F046
:10111000010E056ECBEC07F0800E9BEC08F0120080
:10112000046E8D800450B7EC08F0B0EC08F0040EAB
:10113000A0EC07F01200046E8D900450B7EC08F09C
:10114000B0EC08F0040EA0EC07F012008D90010E38
:10115000B7EC08F0B0EC08F0020EA0EC07F01200BB
:101160008D82030EE82EFED700F08D921200036EE2
:0A11700003C08CFF120020202008AD
:020000040020DA
:08000000FFFFFFFFFFFFFFFF00
:020000040030CA
:0E00000000091F1EFF8385FF0FC00FE00F4099
:00000001FF
