:0400000007EF00F016
:0A000800318291ED07F07FEF08F060
:100800000020202020202020202020202020202008
:03081000200000C5
:100814000F0EC16E000E956EF00E936E000E966E66
:10082400000E946EF19E5EEC08F0830ED56EF29489
:10083400C20ED76EF70ED66EF28AF28ED58EC40E25
:10084400D36EE0EC08F0D0B6D0B418D0E0EC08F0E9
:10085400450ECAEC08F04E0ECAEC08F0450ECAEC80
:1008640008F0520ECAEC08F0470ECAEC08F0490E24
:10087400CAEC08F0410ECAEC08F010D0D0B20ED089
:10088400E0EC08F04D0ECAEC08F0430ECAEC08F098
:100894004C0ECAEC08F0520ECAEC08F0030E286E97
:1008A4008A0E276E560EE82EFED7272EFCD7282E4A
:1008B400FAD7E0EC08F0000E8A6E000E0A6E000E05
:1008C400096EFFEC06F0156E54EC07F0430E151894
:1008D400D8A42BD0C00ED5EC08F0200E2F6E200E1D
:1008E4002E6E200E2D6E000E146E000E136E000E72
:1008F400126E000E116E000E106E000E0F6E000EC2
:10090400056E000E066E000E076E000E086E800E59
:10091400D5EC08F0010E1E6E9CEC08F0C00ED5EC70
:1009240008F0800ED5EC08F0C6D7200E2E18D8B4E7
:1009340008D0200E2D18D8B404D0200E2F18D8A417
:1009440083D0200E2F18D8A421D02B0E1518D8B47C
:100954000CD02D0E1518D8B408D02F0E1518D8B4F5
:1009640004D0780E1518D8A411D0200E2E18D8B49F
:100974000DD0200E2D18D8A409D0810ED5EC08F086
:100984001550CAEC08F015C02FF02ED2200E2E18E8
:10099400D8A427D02B0E1518D8A414D02D0E1518B2
:1009A400D8A410D02F0E1518D8A40CD0780E151872
:1009B400D8A408D03D0E1518D8A404D0430E151899
:1009C400D8B40FD0800ED5EC08F01550CAEC08F05E
:1009D40015C02EF0D00E1524136E146AFF0E1422C7
:1009E40003D2200E2D18D8A4FFD1200E2F18D8B46E
:1009F400FBD1200E2E18D8B4F7D12B0E1518D8A47D
:100A040014D02D0E1518D8A410D02F0E1518D8A454
:100A14000CD0780E1518D8A408D03D0E1518D8A4FB
:100A240004D0430E1518D8B4DFD1820ED5EC08F0EB
:100A34001550CAEC08F015C02DF0D00E1524116E17
:100A4400126AFF0E1222D0D13D0E1518D8A4C9D1B6
:100A5400200E2D18D8B4C5D1200E2F18D8B4C1D16A
:100A6400200E2E18D8B4BDD1830ED5EC08F03D0E5F
:100A7400CAEC08F093D011501324276E125014209E
:100A8400286E27C001F028C002F0036A046A01C07E
:100A94001AF002C01BF003C01CF004C01DF0640E69
:100AA4001E6E000E1F6E000E206E000E216EBEEC38
:100AB40007F01AC005F01BC006F01CC007F01DC0EB
:100AC40008F07AD01150135C276E12501458D8D7FE
:100AD40013C01AF014C01BF011C01CF012C01DF09A
:100AE400B7EC08F01AC001F01BC002F0CED71150C9
:100AF4001210D8B42FD013501410D8B45DD013C032
:100B040020F014C021F011C022F012C023F014EC24
:100B140008F020C001F021C002F0036A046A13C087
:100B24001AF014C01BF0000E1D6E640E1C6EB7ECA0
:100B340008F01AC020F01BC021F011C022F012C02E
:100B440023F014EC08F020C005F021C006F0076A79
:100B5400086A32D013501410D8B406D011501210B1
:100B6400D8A402D0E80E09D013501410D8A48FD7FB
:100B740011501210D8A48BD7E90E016E030E026E29
:100B8400000E036E000E046E82D7000E016E000E7E
:100B9400026E000E036E000E046E0ED02F502B0A50
:100BA400D8B469D7060AD8B48DD7020AD8B49FD767
:100BB400570AD8B48DD7E9D7840ED5EC08F001C014
:100BC4001AF002C01BF003C01CF004C01DF09C0E00
:100BD4001E6EFF0E1F6EFF0E206EFF0E216EBEEC0A
:100BE40007F005501A24276E06501B20286E075064
:100BF4001C20296E08501D202A6E27502810291009
:100C04002A10D8B456D0000E2C6E000E2B6E2CBEBB
:100C140008D02C5005E1030E2B5CD8B0E5D001D0F0
:100C2400E3D013C020F014C021F011C022F012C090
:100C340023F014EC08F020C001F021C002F0036A94
:100C4400046A13C01AF014C01BF011C01CF012C0C7
:100C54001DF03DEC08F01AC016F01BC017F0186A1E
:100C6400196A0150300FCAEC08F02B502C10D8A48C
:100C740009D01650171018101910D8B403D02C0E20
:100C8400CAEC08F01650171018101910D8B4ACD0CC
:100C940016C01AF017C01BF0000E1D6E0A0E1C6E53
:100CA400B7EC08F01AC013F01BC014F02B4A2C2A1E
:100CB400AED704500310021004E1520E015CD8A018
:100CC40025D0E80E011806E1030E021803100410E3
:100CD400D8B41CD0E90E011806E1030E0218031063
:100CE4000410D8B413D02D0ECAEC08F0850ED5EC40
:100CF40008F0041E031E021E016C000E02220322D1
:100D040004220150300FCAEC08F06ED004500310D6
:100D1400021004E10B0E015CD8A038D0E80E0118D3
:100D240006E1030E021803100410D8B42FD0E90E04
:100D3400011806E1030E021803100410D8B426D0DB
:100D4400010E0F240F6E000E1020106EF60E0124FB
:100D5400016EFF0E0220026EFF0E0320036EFF0ED3
:100D64000420046E045003100210EAE10B0E015C2F
:100D7400D8B0E6D70F50300FCAEC08F0850ED5EC8A
:100D840008F00150300FCAEC08F02ED0E80E01181C
:100D940010E1030E021803100410D8A40AD0490E5F
:100DA400CAEC08F04E0ECAEC08F0460ECAEC08F085
:100DB4001BD0E90E011810E1030E021803100410F1
:100DC400D8A40AD0490ECAEC08F04E0ECAEC08F0BA
:100DD400440ECAEC08F008D00150300FCAEC08F0F9
:100DE40003D0570ECAEC08F0E40E276E440EE82E2A
:100DF400FED7272EFCD700D05ED581B881AA04D0B7
:100E040081AC02D081BEF9D7000E0A6E010E096EC4
:100E1400FE0E8A6E81B802D0310E120081BA02D061
:100E2400320E120081BC02D0330E120081BE02D0F9
:100E34002B0E1200FD0E8A6E81B802D0340E120001
:100E440081BA02D0350E120081BC02D0360E1200D7
:100E540081BE02D02D0E1200FB0E8A6E81B802D024
:100E6400370E120081BA02D0380E120081BC02D0B3
:100E7400390E120081BE02D02F0E1200F70E8A6EB8
:100E840081B802D0430E120081BA02D0300E120093
:100E940081BC02D03D0E120081BE02D0780E120039
:100EA4003F0E1200080E0D180E10D8A414D0000E18
:100EB4000E6E000E0D6E0FD0000E0BD0050E09D075
:100EC400060E07D0030E05D0020E03D0040E01D087
:100ED400070E8B6E21D00DC01AF00EC01BF01B50F4
:100EE400000AD8A419D01A50000AD8B4E5D7010AC8
:100EF400D8B4E4D7030AD8B4E3D7010AD8B4E2D704
:100F0400070AD8B4E1D7010AD8B4DAD7030AD8B4A7
:100F1400DDD7010AD8B4DCD70D4A0E2A1200060028
:100F2400F2A419D009500A10D8A407D0010E0B243A
:100F34000B6E000E0C200C6E04D0000E0C6E000E16
:100F44000B6EF2948DB402D08D8401D08D94C20EB8
:100F5400D76EF70ED66E0A0E0B180C10D8A40AD052
:100F640009500A10D8A406D08BBE02D08B8E01D0B3
:100F74008B9E030031921100000E226E000E236E30
:100F8400000E246E000E256E1AA008D01E502226D4
:100F94001F5023222050242221502522D8901E366F
:100FA4001F3620362136D8901D321C321B321A329D
:100FB4001A501B101C101D10D8A4E6D722C01AF01A
:100FC40023C01BF024C01CF025C01DF012001B6EB2
:100FD4001BD0050E1A6EDE0EE82EFED71A2EFCD795
:100FE4001200530EE82EFED700F0350EE82EFED781
:100FF40000F01200080EE82EFED700F01200030ED7
:10100400E82EFED700F012001B50010AD8B4E1D735
:10101400030AD8B4E6D7010AD8B4ECD7070AD8A48F
:101024001200EDD7000E256E000E246E2250231000
:10103400D8B41CD0010E266E04D0D89022362336A4
:10104400262A23AEFAD7D890243625362250205C9F
:1010540023502158D8A005D02250205E2350215A75
:101064002480D89023322232262EEDD724C020F0BB
:1010740025C021F012001C501D10D8B418D0010E48
:101084001E6E04D0D8901C361D361E2A1DAEFAD70B
:101094001C501A5C1D501B58D8A004D01C501A5E5A
:1010A4001D501B5AD8901D321C321E2EF1D71AC067
:1010B4001AF01BC01BF012008D903F0E8C6EEAECF0
:1010C40008F0010EE9EC07F03F0E8C6EEAEC08F034
:1010D400030EE9EC07F03F0E8C6EEAEC08F0040E08
:1010E400E9EC07F0E0EC08F00F0EF1EC08F0EAECA4
:1010F40008F0040EE9EC07F01200EA0EF66E110E89
:10110400F76E000EF86E00EE2DF010EE04F00900FC
:10111400F5CFEEFFE550E150FAE100EE01F0190ED3
:10112400EE6AE806FDE131903192000EF86E00019E
:101134000AEF04F0000E216E000E206E1E502024D3
:101144001F6E1FC0F6FF080EF76E0800F550CAECBC
:1011540008F0204A212A21BEF1D7215005E1100EC2
:10116400205CD8B01200EAD712001A501C02F3CF48
:101174001EF0F4CF1FF01A501D02F3501F261B500F
:101184001C02F3501F261EC01AF01FC01BF01200D1
:101194001D6E8D801D50F1EC08F0EAEC08F0040E91
:1011A400E9EC07F012001D6E8D901D50F1EC08F073
:1011B400EAEC08F0040EE9EC07F012008D90010E41
:1011C400F1EC08F0EAEC08F0020EE9EC07F012008A
:1011D4008D82030EE82EFED700F08D9212001C6E55
:0A11E4001CC08CFF12002020200820
:020000040020DA
:08000000FFFFFFFFFFFFFFFF00
:020000040030CA
:0E00000000091F1EFF8181FF0FC00FE00F409F
:00000001FF
