:040000001EEF08F0F7
:100800000020202020202020202020202020202008
:100810002000486F6C61206D756E646F00000F0ED4
:10082000C16E000E956EF00E936E000E966E000E69
:10083000946EF19EFDEC07F07DEC08F0120E1A6E3E
:1008400039EC08F0030E246E8A0E236E560EE82E45
:10085000FED7232EFCD7242EFAD77DEC08F0000E0D
:100860008A6ECDEC06F0116E1EEC07F0430E1118E7
:10087000D8A42BD0C00E72EC08F0200E2B6E200EE8
:100880002A6E200E296E000E106E000E0F6E000EE6
:100890000E6E000E0D6E000E0C6E000E0B6E000E36
:1008A000056E000E066E000E076E000E086E800EBE
:1008B00072EC08F0010E1A6E39EC08F0C00E72EC02
:1008C00008F0800E72EC08F0CAD7200E2A18D8B4AF
:1008D00008D0200E2918D8B404D0200E2B18D8A484
:1008E00083D0200E2B18D8A421D02B0E1118D8B4E9
:1008F0000CD02D0E1118D8B408D02F0E1118D8B462
:1009000004D0780E1118D8A411D0200E2A18D8B40B
:100910000DD0200E2918D8A409D0810E72EC08F051
:10092000115067EC08F011C02BF02ED2200E2A18BF
:10093000D8A427D02B0E1118D8A414D02D0E11181E
:10094000D8A410D02F0E1118D8A40CD0780E1118DE
:10095000D8A408D03D0E1118D8A404D0430E111805
:10096000D8B40FD0800E72EC08F0115067EC08F08C
:1009700011C02AF0D00E11240F6E106AFF0E102243
:1009800003D2200E2918D8A4FFD1200E2B18D8B4DA
:10099000FBD1200E2A18D8B4F7D12B0E1118D8A4E9
:1009A00014D02D0E1118D8A410D02F0E1118D8A4C1
:1009B0000CD0780E1118D8A408D03D0E1118D8A468
:1009C00004D0430E1118D8B4DFD1820E72EC08F0B7
:1009D000115067EC08F011C029F0D00E11240D6EF3
:1009E0000E6AFF0E0E22D0D13D0E1118D8A4C9D127
:1009F000200E2918D8B4C5D1200E2B18D8B4C1D1D7
:100A0000200E2A18D8B4BDD1830E72EC08F03D0E2A
:100A100067EC08F093D00D500F24236E0E50102079
:100A2000246E23C001F024C002F0036A046A01C0EE
:100A300016F002C017F003C018F004C019F0640EDD
:100A40001A6E000E1B6E000E1C6E000E1D6E5DEC0D
:100A500007F016C005F017C006F018C007F019C05F
:100A600008F07AD00D500F5C236E0E501058D8D776
:100A70000FC016F010C017F00DC018F00EC019F01E
:100A800054EC08F016C001F017C002F0CED70D509C
:100A90000E10D8B42FD00F501010D8B45DD00FC0A6
:100AA0001CF010C01DF00DC01EF00EC01FF0B3EC06
:100AB00007F01CC001F01DC002F0036A046A0FC0F9
:100AC00016F010C017F0000E196E640E186E54EC7C
:100AD00008F016C01CF017C01DF00DC01EF00EC0AF
:100AE0001FF0B3EC07F01CC005F01DC006F0076A4C
:100AF000086A32D00F501010D8B406D00D500E1026
:100B0000D8A402D0E80E09D00F501010D8A48FD767
:100B10000D500E10D8A48BD7E90E016E030E026E95
:100B2000000E036E000E046E82D7000E016E000EE2
:100B3000026E000E036E000E046E0ED02B502B0AB8
:100B4000D8B469D7060AD8B48DD7020AD8B49FD7CB
:100B5000570AD8B48DD7E9D7840E72EC08F001C0DB
:100B600016F002C017F003C018F004C019F09C0E74
:100B70001A6EFF0E1B6EFF0E1C6EFF0E1D6E5DECDF
:100B800007F005501624236E06501720246E0750D8
:100B90001820256E08501920266E23502410251089
:100BA0002610D8B456D0000E286E000E276E28BE30
:100BB00008D0285005E1030E275CD8B0E5D001D05D
:100BC000E3D00FC01CF010C01DF00DC01EF00EC011
:100BD0001FF0B3EC07F01CC001F01DC002F0036A67
:100BE000046A0FC016F010C017F00DC018F00EC048
:100BF00019F0DCEC07F016C012F017C013F0146AFD
:100C0000156A0150300F67EC08F027502810D8A45F
:100C100009D01250131014101510D8B403D02C0E94
:100C200067EC08F01250131014101510D8B4ACD0A3
:100C300012C016F013C017F0000E196E0A0E186ECF
:100C400054EC08F016C00FF017C010F0274A282AFD
:100C5000AED704500310021004E1520E015CD8A07C
:100C600025D0E80E011806E1030E02180310041047
:100C7000D8B41CD0E90E011806E1030E02180310C7
:100C80000410D8B413D02D0E67EC08F0850E72EC6A
:100C900008F0041E031E021E016C000E0222032235
:100CA00004220150300F67EC08F06ED0045003109E
:100CB000021004E10B0E015CD8A038D0E80E011838
:100CC00006E1030E021803100410D8B42FD0E90E69
:100CD000011806E1030E021803100410D8B426D040
:100CE000010E0B240B6E000E0C200C6EF60E012470
:100CF000016EFF0E0220026EFF0E0320036EFF0E38
:100D00000420046E045003100210EAE10B0E015C93
:100D1000D8B0E6D70B50300F67EC08F0850E72ECB8
:100D200008F00150300F67EC08F02ED0E80E0118E3
:100D300010E1030E021803100410D8A40AD0490EC3
:100D400067EC08F04E0E67EC08F0460E67EC08F012
:100D50001BD0E90E011810E1030E02180310041055
:100D6000D8A40AD0490E67EC08F04E0E67EC08F0E4
:100D7000440E67EC08F008D00150300F67EC08F023
:100D800003D0570E67EC08F0E40E236E440EE82EF5
:100D9000FED7232EFCD700D062D581B881AA04D01B
:100DA00081AC02D081BEF9D7FE0E8A6E81B802D026
:100DB000310E120081BA02D0320E120081BC02D074
:100DC000330E120081BE02D02B0E1200FD0E8A6E71
:100DD00081B802D0340E120081BA02D0350E120052
:100DE00081BC02D0360E120081BE02D02D0E120040
:100DF000FB0E8A6E81B802D0370E120081BA02D083
:100E0000380E120081BC02D0390E120081BE02D011
:100E10002F0E1200F70E8A6E81B802D0430E120018
:100E200081BA02D0300E120081BC02D03D0E1200F9
:100E300081BE02D0780E12003F0E12008D84090E82
:100E400009180A10D8A414D0000E0A6E000E096EFC
:100E50000FD0000E0BD0050E09D0060E07D0030EE2
:100E600005D0020E03D0040E01D0070E8B6E22D0E7
:100E700009C016F00AC017F01750000AD8A4E9D725
:100E80001650010AD8B4E5D7030AD8B4E4D7010A4A
:100E9000D8B4E3D7070AD8B4E2D7010AD8B4E1D767
:100EA000030AD8B4DAD7010AD8B4DDD70F0AD8B408
:100EB000DCD7CFD7094A0A2A1200000E1E6E000E98
:100EC0001F6E000E206E000E216E16A008D01A5064
:100ED0001E261B501F221C5020221D502122D8905C
:100EE0001A361B361C361D36D89019321832173276
:100EF00016321650171018101910D8A4E6D71EC0B5
:100F000016F01FC017F020C018F021C019F0120011
:100F1000176E1BD0050E166EDE0EE82EFED7162EAF
:100F2000FCD71200530EE82EFED700F0350EE82E47
:100F3000FED700F01200080EE82EFED700F01200D7
:100F4000030EE82EFED700F012001750010AD8B4A5
:100F5000E1D7030AD8B4E6D7010AD8B4ECD7070A18
:100F6000D8A41200EDD7000E216E000E206E1E5088
:100F70001F10D8B41CD0010E226E04D0D8901E369B
:100F80001F36222A1FAEFAD7D890203621361E509F
:100F90001C5C1F501D58D8A005D01E501C5E1F5051
:100FA0001D5A2080D8901F321E32222EEDD720C02D
:100FB0001CF021C01DF0120018501910D8B418D020
:100FC000010E1A6E04D0D890183619361A2A19AEA6
:100FD000FAD71850165C19501758D8A004D01850DA
:100FE000165E1950175AD890193218321A2EF1D7A6
:100FF00016C016F017C017F012008D903F0E8C6EC1
:1010000087EC08F0010E88EC07F03F0E8C6E87EC41
:1010100008F0030E88EC07F03F0E8C6E87EC08F0AA
:10102000040E88EC07F07DEC08F00F0E8EEC08F053
:1010300087EC08F0040E88EC07F01200240EF66E20
:10104000110EF76E000EF86E00EE29F010EE04F0AF
:101050000900F5CFEEFFE550E150FAE100EE01F0B6
:10106000150EEE6AE806FDE1000EF86E00010FEFC6
:1010700004F0000E1D6E000E1C6E1A501C241B6E18
:101080001BC0F6FF080EF76E0800F55067EC08F07D
:101090001C4A1D2A1DBEF1D71D5005E1100E1C5C17
:1010A000D8B01200EAD7120016501802F3CF1AF087
:1010B000F4CF1BF016501902F3501B2617501802DC
:1010C000F3501B261AC016F01BC017F01200196E41
:1010D0008D8019508EEC08F087EC08F0040E88EC37
:1010E00007F01200196E8D9019508EEC08F087EC05
:1010F00008F0040E88EC07F012008D90010E8EECC3
:1011000008F087EC08F0020E88EC07F012008D82E0
:10111000030EE82EFED700F08D921200186E18C054
:081120008CFF120020202008C2
:020000040020DA
:08000000FFFFFFFFFFFFFFFF00
:020000040030CA
:0E00000000091F1EFF8385FF0FC00FE00F4099
:00000001FF
