:0400000007EF00F016
:0A00080031827EED07F06CEF08F086
:100800000020202020202020202020202020202008
:100810002000456E6572676961004D434C520000CF
:100820000F0EC16E000E956EF00E936E000E966E5A
:10083000000E946EF19E4BEC08F0830ED56EF29490
:10084000C20ED76EF70ED66EF28AF28ED58EC40E19
:10085000D36ECDEC08F0D0B6D0A407D0CDEC08F024
:10086000120E1E6E89EC08F008D0D0B206D0CDEC86
:1008700008F01A0E1E6E89EC08F0030E286E8A0E20
:10088000276E560EE82EFED7272EFCD7282EFAD735
:10089000CDEC08F0000E8A6E000E0A6E000E096E96
:1008A000ECEC06F0156E41EC07F0430E1518D8A4D9
:1008B0002BD0C00EC2EC08F0200E2F6E200E2E6E34
:1008C000200E2D6E000E146E000E136E000E126EB2
:1008D000000E116E000E106E000E0F6E000E056EF3
:1008E000000E066E000E076E000E086E800EC2EC43
:1008F00008F0010E1E6E89EC08F0C00EC2EC08F084
:10090000800EC2EC08F0C6D7200E2E18D8B408D03E
:10091000200E2D18D8B404D0200E2F18D8A483D0C0
:10092000200E2F18D8A421D02B0E1518D8B40CD017
:100930002D0E1518D8B408D02F0E1518D8B404D021
:10094000780E1518D8A411D0200E2E18D8B40DD0BA
:10095000200E2D18D8A409D0810EC2EC08F0155035
:10096000B7EC08F015C02FF02ED2200E2E18D8A408
:1009700027D02B0E1518D8A414D02D0E1518D8A4D6
:1009800010D02F0E1518D8A40CD0780E1518D8A496
:1009900008D03D0E1518D8A404D0430E1518D8B4AD
:1009A0000FD0800EC2EC08F01550B7EC08F015C05F
:1009B0002EF0D00E1524136E146AFF0E142203D2EB
:1009C000200E2D18D8A4FFD1200E2F18D8B4FBD19B
:1009D000200E2E18D8B4F7D12B0E1518D8A414D089
:1009E0002D0E1518D8A410D02F0E1518D8A40CD081
:1009F000780E1518D8A408D03D0E1518D8A404D028
:100A0000430E1518D8B4DFD1820EC2EC08F0155091
:100A1000B7EC08F015C02DF0D00E1524116E126A37
:100A2000FF0E1222D0D13D0E1518D8A4C9D1200E28
:100A30002D18D8B4C5D1200E2F18D8B4C1D1200E8E
:100A40002E18D8B4BDD1830EC2EC08F03D0EB7EC21
:100A500008F093D011501324276E12501420286EE2
:100A600027C001F028C002F0036A046A01C01AF02E
:100A700002C01BF003C01CF004C01DF0640E1E6E0B
:100A8000000E1F6E000E206E000E216EABEC07F004
:100A90001AC005F01BC006F01CC007F01DC008F00E
:100AA0007AD01150135C276E12501458D8D713C047
:100AB0001AF014C01BF011C01CF012C01DF0A4EC01
:100AC00008F01AC001F01BC002F0CED7115012106E
:100AD000D8B42FD013501410D8B45DD013C020F068
:100AE00014C021F011C022F012C023F001EC08F074
:100AF00020C001F021C002F0036A046A13C01AF09A
:100B000014C01BF0000E1D6E640E1C6EA4EC08F0E9
:100B10001AC020F01BC021F011C022F012C023F037
:100B200001EC08F020C005F021C006F0076A086A51
:100B300032D013501410D8B406D011501210D8A4CB
:100B400002D0E80E09D013501410D8A48FD711503A
:100B50001210D8A48BD7E90E016E030E026E000EA0
:100B6000036E000E046E82D7000E016E000E026E40
:100B7000000E036E000E046E0ED02F502B0AD8B458
:100B800069D7060AD8B48DD7020AD8B49FD7570AB6
:100B9000D8B48DD7E9D7840EC2EC08F001C01AF0A2
:100BA00002C01BF003C01CF004C01DF09C0E1E6EA2
:100BB000FF0E1F6EFF0E206EFF0E216EABEC07F0D6
:100BC00005501A24276E06501B20286E07501C2043
:100BD000296E08501D202A6E2750281029102A102F
:100BE000D8B456D0000E2C6E000E2B6E2CBE08D042
:100BF0002C5005E1030E2B5CD8B0E5D001D0E3D03A
:100C000013C020F014C021F011C022F012C023F054
:100C100001EC08F020C001F021C002F0036A046A70
:100C200013C01AF014C01BF011C01CF012C01DF04C
:100C30002AEC08F01AC016F01BC017F0186A196ADF
:100C40000150300FB7EC08F02B502C10D8A409D06D
:100C50001650171018101910D8B403D02C0EB7EC7A
:100C600008F01650171018101910D8B4ACD016C0D0
:100C70001AF017C01BF0000E1D6E0A0E1C6EA4ECBD
:100C800008F01AC013F01BC014F02B4A2C2AAED760
:100C900004500310021004E1520E015CD8A025D0CC
:100CA000E80E011806E1030E021803100410D8B470
:100CB0001CD0E90E011806E1030E021803100410FF
:100CC000D8B413D02D0EB7EC08F0850EC2EC08F0A6
:100CD000041E031E021E016C000E022203220422C7
:100CE0000150300FB7EC08F06ED004500310021022
:100CF00004E10B0E015CD8A038D0E80E011806E123
:100D0000030E021803100410D8B42FD0E90E0118F6
:100D100006E1030E021803100410D8B426D0010E09
:100D20000F240F6E000E1020106EF60E0124016EBF
:100D3000FF0E0220026EFF0E0320036EFF0E042042
:100D4000046E045003100210EAE10B0E015CD8B0EF
:100D5000E6D70F50300FB7EC08F0850EC2EC08F064
:100D60000150300FB7EC08F02ED0E80E011810E15A
:100D7000030E021803100410D8A40AD0490EB7ECD1
:100D800008F04E0EB7EC08F0460EB7EC08F01BD09A
:100D9000E90E011810E1030E021803100410D8A484
:100DA0000AD0490EB7EC08F04E0EB7EC08F0440E2E
:100DB000B7EC08F008D00150300FB7EC08F003D0C2
:100DC000570EB7EC08F0E40E276E440EE82EFED75F
:100DD000272EFCD700D05ED581B881AA04D081AC83
:100DE00002D081BEF9D7000E0A6E010E096EFE0E0A
:100DF0008A6E81B802D0310E120081BA02D0320E52
:100E0000120081BC02D0330E120081BE02D02B0E24
:100E10001200FD0E8A6E81B802D0340E120081BA23
:100E200002D0350E120081BC02D0360E120081BEF7
:100E300002D02D0E1200FB0E8A6E81B802D0370E42
:100E4000120081BA02D0380E120081BC02D0390ED5
:100E5000120081BE02D02F0E1200F70E8A6E81B8EA
:100E600002D0430E120081BA02D0300E120081BCB3
:100E700002D03D0E120081BE02D0780E12003F0E4D
:100E80001200080E0D180E10D8A414D0000E0E6E0D
:100E9000000E0D6E0FD0000E0BD0050E09D0060E01
:100EA00007D0030E05D0020E03D0040E01D0070EAA
:100EB0008B6E21D00DC01AF00EC01BF01B50000A23
:100EC000D8A419D01A50000AD8B4E5D7010AD8B46A
:100ED000E4D7030AD8B4E3D7010AD8B4E2D7070AA3
:100EE000D8B4E1D7010AD8B4DAD7030AD8B4DDD729
:100EF000010AD8B4DCD70D4A0E2A12000600F2A46B
:100F000019D009500A10D8A407D0010E0B240B6E7B
:100F1000000E0C200C6E04D0000E0C6E000E0B6E3A
:100F2000F2948DB402D08D8401D08D94C20ED76E10
:100F3000F70ED66E0A0E0B180C10D8A40AD0095062
:100F40000A10D8A406D08BBE02D08B8E01D08B9E07
:100F5000030031921100000E226E000E236E000E6F
:100F6000246E000E256E1AA008D01E5022261F5097
:100F700023222050242221502522D8901E361F36AD
:100F800020362136D8901D321C321B321A321A50AC
:100F90001B101C101D10D8A4E6D722C01AF023C0C5
:100FA0001BF024C01CF025C01DF012001B6E1BD0CE
:100FB000050E1A6EDE0EE82EFED71A2EFCD7120092
:100FC000530EE82EFED700F0350EE82EFED700F0C7
:100FD0001200080EE82EFED700F01200030EE82ED5
:100FE000FED700F012001B50010AD8B4E1D7030A63
:100FF000D8B4E6D7010AD8B4ECD7070AD8A41200AF
:10100000EDD7000E256E000E246E22502310D8B4AA
:101010001CD0010E266E04D0D89022362336262A04
:1010200023AEFAD7D890243625362250205C2350A0
:101030002158D8A005D02250205E2350215A248068
:10104000D89023322232262EEDD724C020F025C09E
:1010500021F012001C501D10D8B418D0010E1E6EC5
:1010600004D0D8901C361D361E2A1DAEFAD71C504F
:101070001A5C1D501B58D8A004D01C501A5E1D507D
:101080001B5AD8901D321C321E2EF1D71AC01AF0EE
:101090001BC01BF012008D903F0E8C6ED7EC08F039
:1010A000010ED6EC07F03F0E8C6ED7EC08F0030E65
:1010B000D6EC07F03F0E8C6ED7EC08F0040ED6ECA1
:1010C00007F0CDEC08F00F0EDEEC08F0D7EC08F0DE
:1010D000040ED6EC07F01200C40EF66E110EF76E79
:1010E000000EF86E00EE2DF010EE04F00900F5CFC2
:1010F000EEFFE550E150FAE100EE01F0190EEE6A64
:10110000E806FDE131903192000EF86E000110EF1B
:1011100004F0000E216E000E206E1E5020241F6E63
:101120001FC0F6FF080EF76E0800F550B7EC08F088
:10113000204A212A21BEF1D7215005E1100E205C62
:10114000D8B01200EAD712001A501C02F3CF1EF0DA
:10115000F4CF1FF01A501D02F3501F261B501C0223
:10116000F3501F261EC01AF01FC01BF012001D6E88
:101170008D801D50DEEC08F0D7EC08F0040ED6ECA4
:1011800007F012001D6E8D901D50DEEC08F0D7ECBC
:1011900008F0040ED6EC07F012008D90010EDEEC84
:1011A00008F0D7EC08F0020ED6EC07F012008D82A2
:1011B000030EE82EFED700F08D9212001C6E1CC0AC
:0811C0008CFF12002020200822
:020000040020DA
:08000000FFFFFFFFFFFFFFFF00
:020000040030CA
:0E00000000091F1EFF8385FF0FC00FE00F4099
:00000001FF
