:04000000D9EF05F03F
:100800000020202020202020202020202020202008
:100810002000486F6C61206D756E646F00000F0ED4
:10082000C16E000E956EF00E936E000E966EF19EE8
:10083000B8EC05F01DEC06F0120E056E91EC05F01B
:10084000030E0A6E8A0E096E560EE82EFED7092E8A
:10085000FCD70A2EFAD71DEC06F0000E8A6EECECDF
:1008600004F0136E430E1318D8A40BD0C00E12EC74
:1008700006F0010E056E91EC05F0C00E12EC06F0CC
:10088000ECD7200E1518D8B408D0200E1418D8B400
:1008900004D0200E1618D8A496D0200E1618D8A46E
:1008A00016D02B0E1318D8B40CD02D0E1318D8B4A4
:1008B00008D02F0E1318D8B404D0780E1318D8A46B
:1008C00006D0135007EC06F013C016F07CD03D0E96
:1008D0001318D8A45DD0200E1518D8B474D0200EEB
:1008E0001418D8B470D0200E1618D8A46CD03D0EB1
:1008F00007EC06F03AD00F501124096E1050122068
:1009000005D00F50115C096E105012580A6E09C0C4
:100910000BF00AC00CF01DD011C001F012C002F0A3
:100920000FC003F010C004F0F4EC05F001C00BF0B0
:1009300002C00CF00ED011C001F012C002F00FC0C6
:1009400003F010C004F068EC05F001C00BF002C029
:100950000CF00D6A0E6A17D0000E0B6E000E0C6EB6
:10096000000E0D6E000E0E6E0ED016502B0AD8B46F
:10097000C2D7060AD8B4C5D7020AD8B4DCD7570AFA
:10098000D8B4CAD7E9D70B50300F07EC06F01BD00C
:10099000200E1518D8A40CD0135007EC06F013C085
:1009A00015F0D00E1324116E126AFF0E12220BD016
:1009B000135007EC06F013C014F0D00E13240F6E82
:1009C000106AFF0E1022E40E096E440EE82EFED7C8
:1009D000092EFCD700D041D781B881AA04D081ACC0
:1009E00002D081BEF9D7FE0E8A6E81B802D0310ED8
:1009F000120081BA02D0320E120081BC02D0330E36
:100A0000120081BE02D02B0E1200FD0E8A6E81B83C
:100A100002D0340E120081BA02D0350E120081BC11
:100A200002D0360E120081BE02D02D0E1200FB0E37
:100A30008A6E81B802D0370E120081BA02D0380E09
:100A4000120081BC02D0390E120081BE02D02F0EDE
:100A50001200F70E8A6E81B802D0430E120081BADE
:100A600002D0300E120081BC02D03D0E120081BEB9
:100A700002D0780E12003F0E1200026E1BD0050E3F
:100A8000016EDE0EE82EFED7012EFCD71200530EAB
:100A9000E82EFED700F0350EE82EFED700F012004B
:100AA000080EE82EFED700F01200030EE82EFED747
:100AB00000F012000250010AD8B4E1D7030AD8B4FA
:100AC000E6D7010AD8B4ECD7070AD8A41200EDD7AC
:100AD000000E066E000E056E03500410D8B41CD034
:100AE000010E076E04D0D89003360436072A04AEF0
:100AF000FAD7D890053606360350015C04500258E8
:100B0000D8A005D00350015E0450025A0580D89049
:100B100004320332072EEDD705C001F006C002F003
:100B20001200000E086E000E076E05500724066EB8
:100B300006C0F6FF080EF76E0800F5500009D8B49D
:100B40000BD005500724066E06C0F6FF080EF76EA0
:100B50000800F55007EC06F0074A082A08BEE5D75A
:100B6000085005E1100E075CD8B01200DED7120065
:100B70008D903F0E8C6E27EC06F0010E3DEC05F0DB
:100B80003F0E8C6E27EC06F0030E3DEC05F03F0E99
:100B90008C6E27EC06F0040E3DEC05F01DEC06F023
:100BA0000F0E2EEC06F027EC06F0040E3DEC05F0DF
:100BB0001200640EF66E0C0EF76E000EF86E00EE6C
:100BC00014F010EE04F00900F5CFEEFFE550E1500F
:100BD000FAE100EE0BF0090EEE6AE806FDE1000E08
:100BE000F86E00010FEF04F001500302F3CF05F09F
:100BF000F4CF06F001500402F3500626025003021F
:100C0000F350062605C001F006C002F01200046E83
:100C10008D8004502EEC06F027EC06F0040E3DEC1F
:100C200005F01200046E8D9004502EEC06F027ECB7
:100C300006F0040E3DEC05F012008D90010E2EEC36
:100C400006F027EC06F0020E3DEC05F012008D8256
:100C5000030EE82EFED700F08D921200036E03C043
:080C60008CFF12002020200887
:020000040020DA
:08000000FFFFFFFFFFFFFFFF00
:020000040030CA
:0E00000000091F1EFF8385FF0FC00FE00F4099
:00000001FF
