:04000000ADEF06F06A
:100800000020202020202020202020202020202008
:100810002000486F6C61206D756E646F00000F0ED4
:10082000C16E000E956EF00E936E000E966EF19EE8
:100830008CEC06F0F1EC06F0120E106E65EC06F092
:10084000030E156E8A0E146E560EE82EFED7142E69
:10085000FCD7152EFAD7F1EC06F0000E8A6EC0EC2C
:1008600005F00B6E430E0B18D8A41DD0200E186E89
:10087000200E176E200E166E000E0A6E000E096E08
:10088000000E086E000E076E000E066E000E056E5E
:10089000800EE6EC06F0010E106E65EC06F0800EA0
:1008A000E6EC06F0DAD7200E1718D8B408D0200EE0
:1008B0001618D8B404D0200E1818D8A447D0200E8B
:1008C0001818D8A419D02B0E0B18D8B40CD02D0E94
:1008D0000B18D8B408D02F0E0B18D8B404D0780E4B
:1008E0000B18D8A409D0810EE6EC06F00B50DBEC17
:1008F00006F00BC018F03BD1200E1718D8A40FD06B
:10090000800EE6EC06F00B50DBEC06F00BC017F0A7
:10091000D00E0B24096E0A6AFF0E0A2228D1200E7F
:100920001618D8A424D1200E1818D8B420D1820EBD
:10093000E6EC06F00B50DBEC06F00BC016F0D00E28
:100940000B24076E086AFF0E082211D13D0E0B180A
:10095000D8A40DD1200E1718D8B409D1200E16181E
:10096000D8B405D1200E1818D8B401D1830EE6EC06
:1009700006F03D0EDBEC06F058D007500924146E4B
:1009800008500A2005D00750095C146E08500A5818
:10099000156E14C001F015C002F025D009C00CF08E
:1009A0000AC00DF007C00EF008C00FF0C8EC06F04A
:1009B0000CC001F00DC002F016D007500810D8B4DA
:1009C00015D009500A10D8B43ED009C00CF00AC0A6
:1009D0000DF007C00EF008C00FF03CEC06F00CC0A4
:1009E00001F00DC002F0036A046A2DD009500A100C
:1009F000D8B406D007500810D8A402D0E80E09D009
:100A000009500A10D8A41FD007500810D8A41BD032
:100A1000E90E016E030E03D0000E016E000E026E91
:100A2000000E036E000E046E0ED018502B0AD8B4C0
:100A3000A4D7060AD8B4A7D7020AD8B4BED7570A93
:100A4000D8B4ACD7E9D7840EE6EC06F00450031016
:100A5000021004E1520E015CD8A025D0E80E011866
:100A600006E1030E021803100410D8B41CD0E90EDE
:100A7000011806E1030E021803100410D8B413D0B5
:100A80002D0EDBEC06F0850EE6EC06F0041E031ED0
:100A9000021E016C000E0222032204220150300FBC
:100AA000DBEC06F064D004500310021004E10B0EDE
:100AB000015CD8A038D0E80E011806E1030E021838
:100AC00003100410D8B42FD0E90E011806E1030E6C
:100AD000021803100410D8B426D0010E0524056EA8
:100AE000000E0620066EF60E0124016EFF0E022097
:100AF000026EFF0E0320036EFF0E0420046E0450EE
:100B000003100210EAE10B0E015CD8B0E6D70550E5
:100B1000300FDBEC06F0850EE6EC06F00150300FEE
:100B2000DBEC06F024D0E80E011810E1030E0218E9
:100B300003100410D8A40AD0490EDBEC06F04E0EC8
:100B4000DBEC06F0460EDBEC06F011D0E90E016E90
:100B5000030E026E000E036E000E046E490EDBECF7
:100B600006F04E0EDBEC06F0440EDBEC06F0E40E75
:100B7000146E440EE82EFED7142EFCD700D06DD68E
:100B800081B881AA04D081AC02D081BEF9D7FE0E13
:100B90008A6E81B802D0310E120081BA02D0320EB4
:100BA000120081BC02D0330E120081BE02D02B0E87
:100BB0001200FD0E8A6E81B802D0340E120081BA86
:100BC00002D0350E120081BC02D0360E120081BE5A
:100BD00002D02D0E1200FB0E8A6E81B802D0370EA5
:100BE000120081BA02D0380E120081BC02D0390E38
:100BF000120081BE02D02F0E1200F70E8A6E81B84D
:100C000002D0430E120081BA02D0300E120081BC15
:100C100002D03D0E120081BE02D0780E12003F0EAF
:100C200012000D6E1BD0050E0C6EDE0EE82EFED7E8
:100C30000C2EFCD71200530EE82EFED700F0350E16
:100C4000E82EFED700F01200080EE82EFED700F0C6
:100C50001200030EE82EFED700F012000D50010A1C
:100C6000D8B4E1D7030AD8B4E6D7010AD8B4ECD790
:100C7000070AD8A41200EDD7000E116E000E106EF8
:100C80000E500F10D8B41CD0010E126E04D0D890A4
:100C90000E360F36122A0FAEFAD7D890103611360C
:100CA0000E500C5C0F500D58D8A005D00E500C5EA5
:100CB0000F500D5A1080D8900F320E32122EEDD7F1
:100CC00010C00CF011C00DF01200000E136E000EDB
:100CD000126E10501224116E11C0F6FF080EF76E3E
:100CE0000800F5500009D8B40BD010501224116E32
:100CF00011C0F6FF080EF76E0800F550DBEC06F0A9
:100D0000124A132A13BEE5D7135005E1100E125CE8
:100D1000D8B01200DED712008D903F0E8C6EFBEC27
:100D200006F0010E11EC06F03F0E8C6EFBEC06F0A7
:100D3000030E11EC06F03F0E8C6EFBEC06F0040E79
:100D400011EC06F0F1EC06F00F0E02EC07F0FBECF4
:100D500006F0040E11EC06F012000C0EF66E0E0EEC
:100D6000F76E000EF86E00EE16F010EE04F00900BB
:100D7000F5CFEEFFE550E150FAE100EE01F00B0E89
:100D8000EE6AE806FDE1000EF86E00010FEF04F0D8
:100D90000C500E02F3CF10F0F4CF11F00C500F02F4
:100DA000F35011260D500E02F350112610C00CF016
:100DB00011C00DF012000F6E8D800F5002EC07F085
:100DC000FBEC06F0040E11EC06F012000F6E8D9095
:100DD0000F5002EC07F0FBEC06F0040E11EC06F0ED
:100DE00012008D90010E02EC07F0FBEC06F0020EF3
:100DF00011EC06F012008D82030EE82EFED700F0F3
:100E00008D9212000E6E0EC08CFF12002020200862
:020000040020DA
:08000000FFFFFFFFFFFFFFFF00
:020000040030CA
:0E00000000091F1EFF8385FF0FC00FE00F4099
:00000001FF
