:04000000DBEF07F03B
:100800000020202020202020202020202020202008
:100810002000486F6C61206D756E646F00000F0ED4
:10082000C16E000E956EF00E936E000E966EF19EE8
:10083000BAEC07F03AEC08F0120E186EF6EC07F07E
:10084000030E226E8A0E216E560EE82EFED7212E42
:10085000FCD7222EFAD73AEC08F0000E8A6EC9ECCB
:1008600006F00F6E430E0F18D8A42BD0C00E2FEC3D
:1008700008F0200E296E200E286E200E276E000E26
:100880000E6E000E0D6E000E0C6E000E0B6E000E46
:100890000A6E000E096E000E056E000E066E000E4A
:1008A000076E000E086E800E2FEC08F0010E186E19
:1008B000F6EC07F0C00E2FEC08F0800E2FEC08F0DD
:1008C000CCD7200E2818D8B408D0200E2718D8B4BA
:1008D00004D0200E2918D8A483D0200E2918D8A41B
:1008E00021D02B0E0F18D8B40CD02D0E0F18D8B461
:1008F00008D02F0E0F18D8B404D0780E0F18D8A433
:1009000011D0200E2818D8B40DD0200E2718D8A446
:1009100009D0810E2FEC08F00F5024EC08F00FC026
:1009200029F02ED2200E2818D8A427D02B0E0F186D
:10093000D8A414D02D0E0F18D8A410D02F0E0F1835
:10094000D8A40CD0780E0F18D8A408D03D0E0F18DC
:10095000D8A404D0430E0F18D8B40FD0800E2FECBB
:1009600008F00F5024EC08F00FC028F0D00E0F2430
:100970000D6E0E6AFF0E0E2203D2200E2718D8A489
:10098000FFD1200E2918D8B4FBD1200E2818D8B4D6
:10099000F7D12B0E0F18D8A414D02D0E0F18D8A4F1
:1009A00010D02F0E0F18D8A40CD0780E0F18D8A482
:1009B00008D03D0E0F18D8A404D0430E0F18D8B499
:1009C000DFD1820E2FEC08F00F5024EC08F00FC09E
:1009D00027F0D00E0F240B6E0C6AFF0E0C22D0D124
:1009E0003D0E0F18D8A4C9D1200E2718D8B4C5D1F0
:1009F000200E2918D8B4C1D1200E2818D8B4BDD1E2
:100A0000830E2FEC08F03D0E24EC08F093D00B5031
:100A10000D24216E0C500E20226E21C001F022C048
:100A200002F0036A046A01C014F002C015F003C0AA
:100A300016F004C017F0640E186E000E196E000E4A
:100A40001A6E000E1B6E1AEC07F014C005F015C0EC
:100A500006F016C007F017C008F07AD00B500D5CF6
:100A6000216E0C500E58D8D70DC014F00EC015F0E2
:100A70000BC016F00CC017F011EC08F014C001F018
:100A800015C002F0CED70B500C10D8B42FD00D509B
:100A90000E10D8B45DD00DC01AF00EC01BF00BC004
:100AA0001CF00CC01DF070EC07F01AC001F01BC068
:100AB00002F0036A046A0DC014F00EC015F0000EB7
:100AC000176E640E166E11EC08F014C01AF015C003
:100AD0001BF00BC01CF00CC01DF070EC07F01AC02E
:100AE00005F01BC006F0076A086A32D00D500E10E0
:100AF000D8B406D00B500C10D8A402D0E80E09D000
:100B00000D500E10D8A48FD70B500C10D8A48BD733
:100B1000E90E016E030E026E000E036E000E046EEF
:100B200082D7000E016E000E026E000E036E000EE4
:100B3000046E0ED029502B0AD8B469D7060AD8B44F
:100B40008DD7020AD8B49FD7570AD8B48DD7E9D722
:100B5000840E2FEC08F001C014F002C015F003C0A1
:100B600016F004C017F09C0E186EFF0E196EFF0EE3
:100B70001A6EFF0E1B6E1AEC07F005501424216E3E
:100B800006501520226E07501620236E085017209D
:100B9000246E2150221023102410D8B456D0000EF9
:100BA000266E000E256E26BE08D0265005E1030EE7
:100BB000255CD8B0E5D001D0E3D00DC01AF00EC04E
:100BC0001BF00BC01CF00CC01DF070EC07F01AC03D
:100BD00001F01BC002F0036A046A0DC014F00EC0DD
:100BE00015F00BC016F00CC017F099EC07F014C00C
:100BF00010F015C011F0126A136A0150300F24EC86
:100C000008F025502610D8A409D010501110121049
:100C10001310D8B403D02C0E24EC08F0105011108F
:100C200012101310D8B4ACD010C014F011C015F0CD
:100C3000000E176E0A0E166E11EC08F014C00DF0BF
:100C400015C00EF0254A262AAED704500310021014
:100C500004E1520E015CD8A025D0E80E011806E18F
:100C6000030E021803100410D8B41CD0E90E0118AA
:100C700006E1030E021803100410D8B413D02D0E91
:100C800024EC08F0850E2FEC08F0041E031E021E53
:100C9000016C000E0222032204220150300F24ECCA
:100CA00008F06ED004500310021004E10B0E015C3A
:100CB000D8A038D0E80E011806E1030E0218031080
:100CC0000410D8B42FD0E90E011806E1030E021863
:100CD00003100410D8B426D0010E0924096E000EAA
:100CE0000A200A6EF60E0124016EFF0E0220026E2B
:100CF000FF0E0320036EFF0E0420046E0450031049
:100D00000210EAE10B0E015CD8B0E6D70950300FB3
:100D100024EC08F0850E2FEC08F00150300F24EC85
:100D200008F02ED0E80E011810E1030E021803108F
:100D30000410D8A40AD0490E24EC08F04E0E24EC7E
:100D400008F0460E24EC08F01BD0E90E011810E163
:100D5000030E021803100410D8A40AD0490E24EC84
:100D600008F04E0E24EC08F0440E24EC08F008D0F5
:100D70000150300F24EC08F003D0570E24EC08F09B
:100D8000E40E216E440EE82EFED7212EFCD700D0B3
:100D900064D581B881AA04D081AC02D081BEF9D7D4
:100DA000FE0E8A6E81B802D0310E120081BA02D0D6
:100DB000320E120081BC02D0330E120081BE02D06E
:100DC0002B0E1200FD0E8A6E81B802D0340E120076
:100DD00081BA02D0350E120081BC02D0360E12004C
:100DE00081BE02D02D0E1200FB0E8A6E81B802D099
:100DF000370E120081BA02D0380E120081BC02D028
:100E0000390E120081BE02D02F0E1200F70E8A6E2C
:100E100081B802D0430E120081BA02D0300E120007
:100E200081BC02D03D0E120081BE02D0780E1200AD
:100E30003F0E1200000E1C6E000E1D6E000E1E6E88
:100E4000000E1F6E14A008D018501C2619501D2229
:100E50001A501E221B501F22D890183619361A36E7
:100E60001B36D89017321632153214321450151022
:100E700016101710D8A4E6D71CC014F01DC015F02A
:100E80001EC016F01FC017F01200156E1BD0050E05
:100E9000146EDE0EE82EFED7142EFCD71200530E71
:100EA000E82EFED700F0350EE82EFED700F0120037
:100EB000080EE82EFED700F01200030EE82EFED733
:100EC00000F012001550010AD8B4E1D7030AD8B4D3
:100ED000E6D7010AD8B4ECD7070AD8A41200EDD798
:100EE000000E1F6E000E1E6E1C501D10D8B41CD0BC
:100EF000010E206E04D0D8901C361D36202A1DAE5F
:100F0000FAD7D8901E361F361C501A5C1D501B583D
:100F1000D8A005D01C501A5E1D501B5A1E80D890B8
:100F20001D321C32202EEDD71EC01AF01FC01BF040
:100F3000120016501710D8B418D0010E186E04D035
:100F4000D89016361736182A17AEFAD71650145CF2
:100F500017501558D8A004D01650145E1750155AC3
:100F6000D89017321632182EF1D714C014F015C0CD
:100F700015F012008D903F0E8C6E44EC08F0010EBF
:100F800045EC07F03F0E8C6E44EC08F0030E45EC88
:100F900007F03F0E8C6E44EC08F0040E45EC07F0B1
:100FA0003AEC08F00F0E4BEC08F044EC08F0040E9D
:100FB00045EC07F012009E0EF66E100EF76E000E56
:100FC000F86E00EE27F010EE04F00900F5CFEEFF0A
:100FD000E550E150FAE100EE01F0130EEE6AE8068A
:100FE000FDE1000EF86E00010FEF04F0000E1B6E25
:100FF000000E1A6E18501A24196E19C0F6FF080E4A
:10100000F76E0800F55024EC08F01A4A1B2A1BBEA4
:10101000F1D71B5005E1100E1A5CD8B01200EAD7C8
:10102000120014501602F3CF18F0F4CF19F0145038
:101030001702F350192615501602F350192618C03E
:1010400014F019C015F01200176E8D8017504BEC7C
:1010500008F044EC08F0040E45EC07F01200176E9F
:101060008D9017504BEC08F044EC08F0040E45EC62
:1010700007F012008D90010E4BEC08F044EC08F0E4
:10108000020E45EC07F012008D82030EE82EFED70B
:1010900000F08D921200166E16C08CFF12002020F8
:0210A000200826
:020000040020DA
:08000000FFFFFFFFFFFFFFFF00
:020000040030CA
:0E00000000091F1EFF8385FF0FC00FE00F4099
:00000001FF
