:04000000D9EF09F03B
:100800000020202020202020202020202020202008
:100810002000486F6C61206D756E646F00000F0ED4
:10082000C16E000E956EF00E936E000E966EF19EE8
:1008300098EC09F02FEC0AF0120E056E71EC09F03D
:10084000030E3A6E8A0E396E560EE82EFED7392EFA
:10085000FCD73A2EFAD72FEC0AF0000E8A6E9EECE7
:1008600008F04C6E430E4C18D8A423D0C00E24ECD4
:100870000AF0200E4F6E200E4E6E200E4D6E000EB2
:100880004B6E000E4A6E000E496E000E486E000E52
:10089000476E000E466E800E24EC0AF0010E056EC7
:1008A00071EC09F0C00E24EC0AF0800E24EC0AF082
:1008B000D4D7200E4E18D8B408D0200E4D18D8B476
:1008C00004D0200E4F18D8A483D0200E4F18D8A4DF
:1008D00021D02B0E4C18D8B40CD02D0E4C18D8B4F7
:1008E00008D02F0E4C18D8B404D0780E4C18D8A4C9
:1008F00011D0200E4E18D8B40DD0200E4D18D8A40B
:1009000009D0810E24EC0AF04C5019EC0AF04CC0CE
:100910004FF0FDD1200E4E18D8A427D02B0E4C1826
:10092000D8A414D02D0E4C18D8A410D02F0E4C18CB
:10093000D8A40CD0780E4C18D8A408D03D0E4C1872
:10094000D8A404D0430E4C18D8B40FD0800E24EC99
:100950000AF04C5019EC0AF04CC04EF0D00E4C246A
:100960004A6E4B6AFF0E4B22D2D1200E4D18D8A4EE
:10097000CED1200E4F18D8B4CAD1200E4E18D8B4FC
:10098000C6D12B0E4C18D8A414D02D0E4C18D8A4B8
:1009900010D02F0E4C18D8A40CD0780E4C18D8A418
:1009A00008D03D0E4C18D8A404D0430E4C18D8B42F
:1009B000AED1820E24EC0AF04C5019EC0AF04CC077
:1009C0004DF0D00E4C24486E496AFF0E49229FD14B
:1009D0003D0E4C18D8A498D1830E24EC0AF03D0E9D
:1009E00019EC0AF085D048504A24396E49504B2002
:1009F0003A6E39C03BF03AC03CF03D6A3E6A3BC0BB
:100A000009F03CC00AF03DC00BF03EC00CF0EFEC2A
:100A100008F009C043F00AC044F00BC045F076D09E
:100A200048504A5C396E49504B58E2D74AC001F0F1
:100A30004BC002F048C003F049C004F0F4EC09F0E8
:100A400001C03BF002C03CF0D8D748504910D8B4A0
:100A50002BD04A504B10D8B459D04AC001F04BC0EB
:100A600002F048C003F049C004F048EC09F001C0AE
:100A70003BF002C03CF03D6A3E6A48C003F049C00A
:100A800004F04AC001F04BC002F048EC09F001C08C
:100A900009F002C00AF007EC0AF009C043F00AC0EE
:100AA00044F00BC045F032D04A504B10D8B406D0B9
:100AB00048504910D8A402D0E80E09D04A504B1033
:100AC000D8A49DD748504910D8A499D7E90E3B6EB9
:100AD000030E3C6E000E3D6E000E3E6E90D7000E73
:100AE0003B6E000E3C6E000E3D6E000E3E6E0ED054
:100AF0004F502B0AD8B477D7060AD8B491D7020A38
:100B0000D8B4A3D7570AD8B491D7E9D73B50300F00
:100B100019EC0AF0840E24EC0AF043C015F044C02E
:100B200016F045C017F03BC009F03CC00AF03DC0CC
:100B30000BF03EC00CF0EFEC08F009C018F00AC052
:100B400019F00BC01AF0B9EC09F015501610171077
:100B5000D8B442D0000E1E6EC80E1F6E420E206E1C
:100B60003BC009F03CC00AF03DC00BF03EC00CF0A9
:100B7000EFEC08F009C018F00AC019F00BC01AF029
:100B800043C015F044C016F045C017F0B9EC09F0A9
:100B900015C01BF016C01CF017C01DF064EC07F068
:100BA0001BC02AF01CC02BF01DC02CF0DEEC07F09F
:100BB0002AC03FF02BC040F02CC041F02DC042F0C5
:100BC0003B50300F19EC0AF02E0E19EC0AF03F5092
:100BD000300F19EC0AF09BD03E503D103C1004E160
:100BE000520E3B5CD8A025D0E80E3B1806E1030E60
:100BF0003C183D103E10D8B41CD0E90E3B1806E15D
:100C0000030E3C183D103E10D8B413D02D0E19EC35
:100C10000AF0850E24EC0AF03E1E3D1E3C1E3B6C85
:100C2000000E3C223D223E223B50300F19EC0AF0D0
:100C30006ED03E503D103C1004E10B0E3B5CD8A042
:100C400038D0E80E3B1806E1030E3C183D103E106C
:100C5000D8B42FD0E90E3B1806E1030E3C183D1026
:100C60003E10D8B426D0010E4624466E000E472012
:100C7000476EF60E3B243B6EFF0E3C203C6EFF0E93
:100C80003D203D6EFF0E3E203E6E3E503D103C101E
:100C9000EAE10B0E3B5CD8B0E6D74650300F19ECBA
:100CA0000AF0850E24EC0AF03B50300F19EC0AF0E4
:100CB0002ED0E80E3B1810E1030E3C183D103E10FC
:100CC000D8A40AD0490E19EC0AF04E0E19EC0AF01D
:100CD000460E19EC0AF01BD0E90E3B1810E1030E8A
:100CE0003C183D103E10D8A40AD0490E19EC0AF069
:100CF0004E0E19EC0AF0440E19EC0AF008D03B50E5
:100D0000300F19EC0AF003D0570E19EC0AF0E40E7C
:100D1000396E440EE82EFED7392EFCD700D09DD573
:100D20000BC00FF0106A116A0A340F3601E310800D
:100D30000F50146E0EC00FF0106A116A0D340F368A
:100D400001E310800F50136E1450D8B40AD0135022
:100D5000145CD8B00DD01450135C0F6E180E0F64D5
:100D600007D00CC009F00DC00AF00EC00BF0120045
:100D70001350D8B40AD01450135CD8B00DD013500F
:100D8000145C0F6E180E0F6407D009C009F00AC07A
:100D90000AF00BC00BF01200060E126E0BBE128E84
:100DA0000EBE128C0A8EFF0E0916FF0E0A16000EDA
:100DB0000B160D8EFF0E0C16FF0E0D16000E0E16E6
:100DC0001350145CD8B01BD0D8900C360D360E36AC
:100DD000130614501318D8B40DD0120612C00FF019
:100DE000070E0F16D8B406D0EFD7D8900B320A32C0
:100DF0000932142A13501418D8B41FD0F6D714503F
:100E0000135CD8B01AD0D89009360A360B361406BF
:100E100014501318D8B40DD0120612C00FF0070EDC
:100E20000F16D8B406D0EFD7D8900E320D320C3250
:100E3000132A13501418D8A4F7D712AE0CD0FF0EF3
:100E4000091AFF0E0A1AFF0E0B1A010E0926000ED0
:100E50000A22000E0B2212AC0CD0FF0E0C1AFF0E51
:100E60000D1AFF0E0E1A010E0C26000E0D22000E9A
:100E70000E22000E126E09500C260A500D220B5045
:100E80000E220EAE0ED0FF0E0C1AFF0E0D1AFF0E24
:100E90000E1A010E0C26000E0D22000E0E22010E5F
:100EA000126E0CC001F00DC002F00EC003F014C0B1
:100EB00004F012C005F047EC08F001C009F002C0D0
:100EC0000AF003C00BF012001DC021F0226A236A51
:100ED0001C34213601E322802150246E2450D8A4F2
:100EE00007D0000E1B6E000E1C6E000E1D6E120051
:100EF00020C021F0226A236A1F34213601E32280B8
:100F00002150296E2950D8A407D0000E1B6E000E68
:100F10001C6E000E1D6E120029507B0F24261DC072
:100F200029F02050291A800E29161C8E1F8EFF0EC4
:100F30001E16FF0E1F16000E2016000E256E000E48
:100F4000266E000E276E070E286E1BA006D01E50C0
:100F500025261F50262220502722D8901D321C32D1
:100F60001B32D8901E361F362036282EEED7090E9B
:100F7000286E1BA006D01E5025261F50262220506A
:100F80002722D8901D321C321B32D89027322632AD
:100F90002532282EEED725C001F026C002F027C04A
:100FA00003F024C004F029C005F047EC08F001C0AC
:100FB0001BF002C01CF003C01DF012002CC02EF06C
:100FC0002F6A306A2B342E3601E32F802E50386E74
:100FD0003850D8A409D0000E2A6E000E2B6E000ED9
:100FE0002C6E000E2D6E1200170E2E6E2AC02FF0E2
:100FF0002BC030F02CC031F02E28326E04D0D890A7
:10100000313230322F32322EFAD72F50336E2B8EB0
:10101000FF0E2A16FF0E2B16000E2C162A50346EC9
:101020002B50356E2C50366E376A8E0E385E38AEC9
:101030000DD03850800A8F0FD8A0CDD7D890373236
:10104000363235323432383EF9D70DD0170E386487
:1010500007D0C1D7D89034363536363637363806CD
:101060003850D8A4F7D73350D8B408D0371E361E1E
:10107000351E346C000E35223622372234C02AF059
:1010800035C02BF036C02CF037C02DF012000450C4
:10109000D8B405D0015002100310D8A40CD0000E13
:1010A000016E000E026E000E036E1200042AD8902C
:1010B000033202320132000E0114066E000E0214D9
:1010C000076EFE0E0314086E065007100810D8B401
:1010D0000CD0ECD7042A010E0126000E0222000ECD
:1010E0000322D890033202320132000E0114066E40
:1010F000000E0214076EFF0E0314086E0650071050
:101100000810D8B406D0E6D70406D89001360236C7
:10111000033602BE03D0020E0460F6D704A0029E7E
:10112000D8900432045003120550D8A4038E01C095
:1011300001F002C002F003C003F0120081B881AADE
:1011400004D081AC02D081BEF9D7FE0E8A6E81B880
:1011500002D0310E120081BA02D0320E120081BCD0
:1011600002D0330E120081BE02D02B0E1200FD0EF3
:101170008A6E81B802D0340E120081BA02D0350EC8
:10118000120081BC02D0360E120081BE02D02D0E9C
:101190001200FB0E8A6E81B802D0370E120081BA9F
:1011A00002D0380E120081BC02D0390E120081BE6E
:1011B00002D02F0E1200F70E8A6E81B802D0430EB5
:1011C000120081BA02D0300E120081BC02D03D0E56
:1011D000120081BE02D0780E12003F0E12008E0E59
:1011E000116E06D0D8900C320B320A320932112A15
:1011F000000E09140D6E000E0A140E6E000E0B1474
:101200000F6EFF0E0C14106E0D500E100F101010FC
:10121000D8A4E8D709C001F00AC002F00BC003F05F
:1012200011C004F0000E056E47EC08F001C009F093
:1012300002C00AF003C00BF01200026E1BD0050EB4
:10124000016EDE0EE82EFED7012EFCD71200530EE3
:10125000E82EFED700F0350EE82EFED700F0120083
:10126000080EE82EFED700F01200030EE82EFED77F
:1012700000F012000250010AD8B4E1D7030AD8B432
:10128000E6D7010AD8B4ECD7070AD8A41200EDD7E4
:10129000000E066E000E056E03500410D8B41CD06C
:1012A000010E076E04D0D89003360436072A04AE28
:1012B000FAD7D890053606360350015C0450025820
:1012C000D8A005D00350015E0450025A0580D89082
:1012D00004320332072EEDD705C001F006C002F03C
:1012E0001200000E086E000E076E05500724066EF1
:1012F00006C0F6FF080EF76E0800F5500009D8B4D6
:101300000BD005500724066E06C0F6FF080EF76ED8
:101310000800F55019EC0AF0074A082A08BEE5D77C
:10132000085005E1100E075CD8B01200DED712009D
:101330008D903F0E8C6E39EC0AF0010E1DEC09F019
:101340003F0E8C6E39EC0AF0030E1DEC09F03F0ED7
:101350008C6E39EC0AF0040E1DEC09F02FEC0AF04B
:101360000F0E40EC0AF039EC0AF0040E1DEC09F007
:101370001200185019101A10D8B406D0000E181AFE
:10138000000E191A800E1A1A15C009F016C00AF0BC
:1013900017C00BF018C00CF019C00DF01AC00EF0F9
:1013A00090EC06F009C015F00AC016F00BC017F05B
:1013B0001200880EF66E140EF76E000EF86E00EE38
:1013C0004DF010EE04F00900F5CFEEFFE550E150CE
:1013D000FAE100EE3BF0120EEE6AE806FDE1000EC7
:1013E000F86E00010FEF04F001500302F3CF05F097
:1013F000F4CF06F001500402F35006260250030217
:10140000F350062605C001F006C002F0120009C024
:1014100001F00AC002F0036A8E0E046E000E056E23
:1014200047EC08F001C009F002C00AF003C00BF05D
:101430001200046E8D80045040EC0AF039EC0AF082
:10144000040E1DEC09F01200046E8D90045040EC67
:101450000AF039EC0AF0040E1DEC09F012008D9030
:10146000010E40EC0AF039EC0AF0020E1DEC09F016
:1014700012008D82030EE82EFED700F08D9212002E
:0C148000036E03C08CFF12002020200827
:020000040020DA
:08000000FFFFFFFFFFFFFFFF00
:020000040030CA
:0E00000000091F1EFF8385FF0FC00FE00F4099
:00000001FF
